{
  "_format": "hh-sol-artifact-1",
  "contractName": "NODERewardManager",
  "sourceName": "contracts/NODERewardManager.sol",
  "abi": [
    {
      "inputs": [
        {
          "internalType": "address",
          "name": "token",
          "type": "address"
        },
        {
          "internalType": "address[]",
          "name": "payees",
          "type": "address[]"
        },
        {
          "internalType": "uint256[]",
          "name": "shares",
          "type": "uint256[]"
        },
        {
          "internalType": "address[]",
          "name": "addresses",
          "type": "address[]"
        },
        {
          "internalType": "uint256[]",
          "name": "fees",
          "type": "uint256[]"
        },
        {
          "internalType": "uint256",
          "name": "swapAmount",
          "type": "uint256"
        }
      ],
      "stateMutability": "nonpayable",
      "type": "constructor"
    },
    {
      "anonymous": false,
      "inputs": [
        {
          "indexed": true,
          "internalType": "contract IERC20",
          "name": "token",
          "type": "address"
        },
        {
          "indexed": false,
          "internalType": "address",
          "name": "to",
          "type": "address"
        },
        {
          "indexed": false,
          "internalType": "uint256",
          "name": "amount",
          "type": "uint256"
        }
      ],
      "name": "ERC20PaymentReleased",
      "type": "event"
    },
    {
      "anonymous": false,
      "inputs": [
        {
          "indexed": false,
          "internalType": "address",
          "name": "account",
          "type": "address"
        },
        {
          "indexed": false,
          "internalType": "uint256",
          "name": "shares",
          "type": "uint256"
        }
      ],
      "name": "PayeeAdded",
      "type": "event"
    },
    {
      "anonymous": false,
      "inputs": [
        {
          "indexed": false,
          "internalType": "address",
          "name": "from",
          "type": "address"
        },
        {
          "indexed": false,
          "internalType": "uint256",
          "name": "amount",
          "type": "uint256"
        }
      ],
      "name": "PaymentReceived",
      "type": "event"
    },
    {
      "anonymous": false,
      "inputs": [
        {
          "indexed": false,
          "internalType": "address",
          "name": "to",
          "type": "address"
        },
        {
          "indexed": false,
          "internalType": "uint256",
          "name": "amount",
          "type": "uint256"
        }
      ],
      "name": "PaymentReleased",
      "type": "event"
    },
    {
      "anonymous": false,
      "inputs": [
        {
          "indexed": false,
          "internalType": "uint256",
          "name": "tokensSwapped",
          "type": "uint256"
        },
        {
          "indexed": false,
          "internalType": "uint256",
          "name": "ethReceived",
          "type": "uint256"
        },
        {
          "indexed": false,
          "internalType": "uint256",
          "name": "tokensIntoLiqudity",
          "type": "uint256"
        }
      ],
      "name": "SwapAndLiquify",
      "type": "event"
    },
    {
      "inputs": [],
      "name": "_defaultNodeTypeName",
      "outputs": [
        {
          "internalType": "string",
          "name": "",
          "type": "string"
        }
      ],
      "stateMutability": "view",
      "type": "function"
    },
    {
      "inputs": [],
      "name": "_gateKeeper",
      "outputs": [
        {
          "internalType": "address",
          "name": "",
          "type": "address"
        }
      ],
      "stateMutability": "view",
      "type": "function"
    },
    {
      "inputs": [
        {
          "internalType": "address",
          "name": "",
          "type": "address"
        }
      ],
      "name": "_oldNodeIndexOfUser",
      "outputs": [
        {
          "internalType": "uint256",
          "name": "",
          "type": "uint256"
        }
      ],
      "stateMutability": "view",
      "type": "function"
    },
    {
      "inputs": [],
      "name": "_oldNodeRewardManager",
      "outputs": [
        {
          "internalType": "address",
          "name": "",
          "type": "address"
        }
      ],
      "stateMutability": "view",
      "type": "function"
    },
    {
      "inputs": [],
      "name": "_polarTokenAddress",
      "outputs": [
        {
          "internalType": "address",
          "name": "",
          "type": "address"
        }
      ],
      "stateMutability": "view",
      "type": "function"
    },
    {
      "inputs": [
        {
          "internalType": "string",
          "name": "nodeTypeName",
          "type": "string"
        },
        {
          "internalType": "uint256[]",
          "name": "values",
          "type": "uint256[]"
        }
      ],
      "name": "addNodeType",
      "outputs": [],
      "stateMutability": "nonpayable",
      "type": "function"
    },
    {
      "inputs": [
        {
          "internalType": "address",
          "name": "user",
          "type": "address"
        }
      ],
      "name": "calculateAllClaimableRewards",
      "outputs": [
        {
          "internalType": "uint256",
          "name": "",
          "type": "uint256"
        }
      ],
      "stateMutability": "view",
      "type": "function"
    },
    {
      "inputs": [],
      "name": "cashoutAll",
      "outputs": [],
      "stateMutability": "nonpayable",
      "type": "function"
    },
    {
      "inputs": [],
      "name": "cashoutFee",
      "outputs": [
        {
          "internalType": "uint256",
          "name": "",
          "type": "uint256"
        }
      ],
      "stateMutability": "view",
      "type": "function"
    },
    {
      "inputs": [
        {
          "internalType": "string",
          "name": "nodeTypeName",
          "type": "string"
        },
        {
          "internalType": "uint256",
          "name": "nodePrice",
          "type": "uint256"
        },
        {
          "internalType": "uint256",
          "name": "claimTime",
          "type": "uint256"
        },
        {
          "internalType": "uint256",
          "name": "rewardAmount",
          "type": "uint256"
        },
        {
          "internalType": "uint256",
          "name": "claimTaxBeforeTime",
          "type": "uint256"
        },
        {
          "internalType": "uint256",
          "name": "max",
          "type": "uint256"
        },
        {
          "internalType": "uint256",
          "name": "earlyClaimTax",
          "type": "uint256"
        },
        {
          "internalType": "uint256",
          "name": "maxLevelUpGlobal",
          "type": "uint256"
        },
        {
          "internalType": "uint256",
          "name": "maxLevelUpUser",
          "type": "uint256"
        },
        {
          "internalType": "uint256",
          "name": "maxCreationPendingGlobal",
          "type": "uint256"
        },
        {
          "internalType": "uint256",
          "name": "maxCreationPendingUser",
          "type": "uint256"
        }
      ],
      "name": "changeNodeType",
      "outputs": [],
      "stateMutability": "nonpayable",
      "type": "function"
    },
    {
      "inputs": [
        {
          "internalType": "string",
          "name": "nodeTypeName",
          "type": "string"
        },
        {
          "internalType": "uint256",
          "name": "count",
          "type": "uint256"
        }
      ],
      "name": "createNodeFree",
      "outputs": [],
      "stateMutability": "nonpayable",
      "type": "function"
    },
    {
      "inputs": [
        {
          "internalType": "string",
          "name": "nodeTypeName",
          "type": "string"
        },
        {
          "internalType": "uint256",
          "name": "count",
          "type": "uint256"
        }
      ],
      "name": "createNodeWithPending",
      "outputs": [],
      "stateMutability": "nonpayable",
      "type": "function"
    },
    {
      "inputs": [
        {
          "internalType": "string",
          "name": "nodeTypeName",
          "type": "string"
        },
        {
          "internalType": "uint256",
          "name": "count",
          "type": "uint256"
        }
      ],
      "name": "createNodeWithTokens",
      "outputs": [],
      "stateMutability": "nonpayable",
      "type": "function"
    },
    {
      "inputs": [],
      "name": "distributionPool",
      "outputs": [
        {
          "internalType": "address",
          "name": "",
          "type": "address"
        }
      ],
      "stateMutability": "view",
      "type": "function"
    },
    {
      "inputs": [],
      "name": "futurFee",
      "outputs": [
        {
          "internalType": "uint256",
          "name": "",
          "type": "uint256"
        }
      ],
      "stateMutability": "view",
      "type": "function"
    },
    {
      "inputs": [],
      "name": "futurUsePool",
      "outputs": [
        {
          "internalType": "address",
          "name": "",
          "type": "address"
        }
      ],
      "stateMutability": "view",
      "type": "function"
    },
    {
      "inputs": [
        {
          "internalType": "string",
          "name": "nodeTypeName",
          "type": "string"
        }
      ],
      "name": "getNodeTypeAll",
      "outputs": [
        {
          "internalType": "uint256[]",
          "name": "",
          "type": "uint256[]"
        }
      ],
      "stateMutability": "view",
      "type": "function"
    },
    {
      "inputs": [
        {
          "internalType": "string",
          "name": "nodeTypeName",
          "type": "string"
        },
        {
          "internalType": "address",
          "name": "_owner",
          "type": "address"
        }
      ],
      "name": "getNodeTypeLevelUp",
      "outputs": [
        {
          "internalType": "uint256",
          "name": "",
          "type": "uint256"
        }
      ],
      "stateMutability": "view",
      "type": "function"
    },
    {
      "inputs": [
        {
          "internalType": "uint256",
          "name": "i",
          "type": "uint256"
        }
      ],
      "name": "getNodeTypeNameAtIndex",
      "outputs": [
        {
          "internalType": "string",
          "name": "",
          "type": "string"
        }
      ],
      "stateMutability": "view",
      "type": "function"
    },
    {
      "inputs": [
        {
          "internalType": "string",
          "name": "nodeTypeName",
          "type": "string"
        },
        {
          "internalType": "uint256",
          "name": "i",
          "type": "uint256"
        }
      ],
      "name": "getNodeTypeNameData",
      "outputs": [
        {
          "internalType": "uint256",
          "name": "",
          "type": "uint256"
        }
      ],
      "stateMutability": "view",
      "type": "function"
    },
    {
      "inputs": [
        {
          "internalType": "string",
          "name": "nodeTypeName",
          "type": "string"
        },
        {
          "internalType": "address",
          "name": "_owner",
          "type": "address"
        }
      ],
      "name": "getNodeTypeOwnerCreatedPending",
      "outputs": [
        {
          "internalType": "uint256",
          "name": "",
          "type": "uint256"
        }
      ],
      "stateMutability": "view",
      "type": "function"
    },
    {
      "inputs": [
        {
          "internalType": "string",
          "name": "nodeTypeName",
          "type": "string"
        },
        {
          "internalType": "address",
          "name": "_owner",
          "type": "address"
        }
      ],
      "name": "getNodeTypeOwnerNumber",
      "outputs": [
        {
          "internalType": "uint256",
          "name": "",
          "type": "uint256"
        }
      ],
      "stateMutability": "view",
      "type": "function"
    },
    {
      "inputs": [
        {
          "internalType": "uint256",
          "name": "start",
          "type": "uint256"
        },
        {
          "internalType": "uint256",
          "name": "end",
          "type": "uint256"
        }
      ],
      "name": "getNodeTypesAllAt",
      "outputs": [
        {
          "internalType": "uint256[][]",
          "name": "",
          "type": "uint256[][]"
        }
      ],
      "stateMutability": "view",
      "type": "function"
    },
    {
      "inputs": [],
      "name": "getNodeTypesSize",
      "outputs": [
        {
          "internalType": "uint256",
          "name": "",
          "type": "uint256"
        }
      ],
      "stateMutability": "view",
      "type": "function"
    },
    {
      "inputs": [],
      "name": "getTotalCreatedNodes",
      "outputs": [
        {
          "internalType": "uint256",
          "name": "",
          "type": "uint256"
        }
      ],
      "stateMutability": "view",
      "type": "function"
    },
    {
      "inputs": [
        {
          "internalType": "address",
          "name": "who",
          "type": "address"
        }
      ],
      "name": "getTotalCreatedNodesOf",
      "outputs": [
        {
          "internalType": "uint256",
          "name": "",
          "type": "uint256"
        }
      ],
      "stateMutability": "view",
      "type": "function"
    },
    {
      "inputs": [],
      "name": "getdistributionPool",
      "outputs": [
        {
          "internalType": "address",
          "name": "",
          "type": "address"
        }
      ],
      "stateMutability": "view",
      "type": "function"
    },
    {
      "inputs": [
        {
          "internalType": "string[]",
          "name": "nodeTypeNames",
          "type": "string[]"
        },
        {
          "internalType": "string",
          "name": "target",
          "type": "string"
        }
      ],
      "name": "levelUp",
      "outputs": [],
      "stateMutability": "nonpayable",
      "type": "function"
    },
    {
      "inputs": [],
      "name": "liquidityPoolFee",
      "outputs": [
        {
          "internalType": "uint256",
          "name": "",
          "type": "uint256"
        }
      ],
      "stateMutability": "view",
      "type": "function"
    },
    {
      "inputs": [
        {
          "internalType": "address",
          "name": "user",
          "type": "address"
        },
        {
          "internalType": "uint256",
          "name": "nb",
          "type": "uint256"
        }
      ],
      "name": "migrateNodes",
      "outputs": [],
      "stateMutability": "nonpayable",
      "type": "function"
    },
    {
      "inputs": [
        {
          "internalType": "uint256",
          "name": "index",
          "type": "uint256"
        }
      ],
      "name": "payee",
      "outputs": [
        {
          "internalType": "address",
          "name": "",
          "type": "address"
        }
      ],
      "stateMutability": "view",
      "type": "function"
    },
    {
      "inputs": [],
      "name": "poolHandler",
      "outputs": [
        {
          "internalType": "address",
          "name": "",
          "type": "address"
        }
      ],
      "stateMutability": "view",
      "type": "function"
    },
    {
      "inputs": [
        {
          "internalType": "address payable",
          "name": "account",
          "type": "address"
        }
      ],
      "name": "release",
      "outputs": [],
      "stateMutability": "nonpayable",
      "type": "function"
    },
    {
      "inputs": [
        {
          "internalType": "contract IERC20",
          "name": "token",
          "type": "address"
        },
        {
          "internalType": "address",
          "name": "account",
          "type": "address"
        }
      ],
      "name": "release",
      "outputs": [],
      "stateMutability": "nonpayable",
      "type": "function"
    },
    {
      "inputs": [
        {
          "internalType": "contract IERC20",
          "name": "token",
          "type": "address"
        },
        {
          "internalType": "address",
          "name": "account",
          "type": "address"
        }
      ],
      "name": "released",
      "outputs": [
        {
          "internalType": "uint256",
          "name": "",
          "type": "uint256"
        }
      ],
      "stateMutability": "view",
      "type": "function"
    },
    {
      "inputs": [
        {
          "internalType": "address",
          "name": "account",
          "type": "address"
        }
      ],
      "name": "released",
      "outputs": [
        {
          "internalType": "uint256",
          "name": "",
          "type": "uint256"
        }
      ],
      "stateMutability": "view",
      "type": "function"
    },
    {
      "inputs": [],
      "name": "rewardsFee",
      "outputs": [
        {
          "internalType": "uint256",
          "name": "",
          "type": "uint256"
        }
      ],
      "stateMutability": "view",
      "type": "function"
    },
    {
      "inputs": [],
      "name": "rewardsTEST",
      "outputs": [
        {
          "internalType": "uint256",
          "name": "",
          "type": "uint256"
        }
      ],
      "stateMutability": "view",
      "type": "function"
    },
    {
      "inputs": [
        {
          "internalType": "string",
          "name": "nodeTypeName",
          "type": "string"
        }
      ],
      "name": "setDefaultNodeTypeName",
      "outputs": [],
      "stateMutability": "nonpayable",
      "type": "function"
    },
    {
      "inputs": [
        {
          "internalType": "address",
          "name": "token",
          "type": "address"
        }
      ],
      "name": "setToken",
      "outputs": [],
      "stateMutability": "nonpayable",
      "type": "function"
    },
    {
      "inputs": [
        {
          "internalType": "address",
          "name": "account",
          "type": "address"
        }
      ],
      "name": "shares",
      "outputs": [
        {
          "internalType": "uint256",
          "name": "",
          "type": "uint256"
        }
      ],
      "stateMutability": "view",
      "type": "function"
    },
    {
      "inputs": [],
      "name": "swapTokensAmount",
      "outputs": [
        {
          "internalType": "uint256",
          "name": "",
          "type": "uint256"
        }
      ],
      "stateMutability": "view",
      "type": "function"
    },
    {
      "inputs": [
        {
          "internalType": "uint256",
          "name": "tokenAmount",
          "type": "uint256"
        }
      ],
      "name": "swapTokensForEth",
      "outputs": [],
      "stateMutability": "pure",
      "type": "function"
    },
    {
      "inputs": [],
      "name": "totalFees",
      "outputs": [
        {
          "internalType": "uint256",
          "name": "",
          "type": "uint256"
        }
      ],
      "stateMutability": "view",
      "type": "function"
    },
    {
      "inputs": [
        {
          "internalType": "contract IERC20",
          "name": "token",
          "type": "address"
        }
      ],
      "name": "totalReleased",
      "outputs": [
        {
          "internalType": "uint256",
          "name": "",
          "type": "uint256"
        }
      ],
      "stateMutability": "view",
      "type": "function"
    },
    {
      "inputs": [],
      "name": "totalReleased",
      "outputs": [
        {
          "internalType": "uint256",
          "name": "",
          "type": "uint256"
        }
      ],
      "stateMutability": "view",
      "type": "function"
    },
    {
      "inputs": [],
      "name": "totalShares",
      "outputs": [
        {
          "internalType": "uint256",
          "name": "",
          "type": "uint256"
        }
      ],
      "stateMutability": "view",
      "type": "function"
    },
    {
      "inputs": [
        {
          "internalType": "uint256",
          "name": "value",
          "type": "uint256"
        }
      ],
      "name": "updateCashoutFee",
      "outputs": [],
      "stateMutability": "nonpayable",
      "type": "function"
    },
    {
      "inputs": [
        {
          "internalType": "uint256",
          "name": "value",
          "type": "uint256"
        }
      ],
      "name": "updateFuturFee",
      "outputs": [],
      "stateMutability": "nonpayable",
      "type": "function"
    },
    {
      "inputs": [
        {
          "internalType": "address payable",
          "name": "wall",
          "type": "address"
        }
      ],
      "name": "updateFuturWall",
      "outputs": [],
      "stateMutability": "nonpayable",
      "type": "function"
    },
    {
      "inputs": [
        {
          "internalType": "address",
          "name": "_new",
          "type": "address"
        }
      ],
      "name": "updateGateKeeper",
      "outputs": [],
      "stateMutability": "nonpayable",
      "type": "function"
    },
    {
      "inputs": [
        {
          "internalType": "uint256",
          "name": "value",
          "type": "uint256"
        }
      ],
      "name": "updateLiquiditFee",
      "outputs": [],
      "stateMutability": "nonpayable",
      "type": "function"
    },
    {
      "inputs": [
        {
          "internalType": "bool",
          "name": "value",
          "type": "bool"
        }
      ],
      "name": "updateOpenCreate",
      "outputs": [],
      "stateMutability": "nonpayable",
      "type": "function"
    },
    {
      "inputs": [
        {
          "internalType": "bool",
          "name": "value",
          "type": "bool"
        }
      ],
      "name": "updateOpenCreateFree",
      "outputs": [],
      "stateMutability": "nonpayable",
      "type": "function"
    },
    {
      "inputs": [
        {
          "internalType": "bool",
          "name": "value",
          "type": "bool"
        }
      ],
      "name": "updateOpenLevelUp",
      "outputs": [],
      "stateMutability": "nonpayable",
      "type": "function"
    },
    {
      "inputs": [
        {
          "internalType": "bool",
          "name": "value",
          "type": "bool"
        }
      ],
      "name": "updateOpenMigrate",
      "outputs": [],
      "stateMutability": "nonpayable",
      "type": "function"
    },
    {
      "inputs": [
        {
          "internalType": "uint256",
          "name": "value",
          "type": "uint256"
        }
      ],
      "name": "updateRewardsFee",
      "outputs": [],
      "stateMutability": "nonpayable",
      "type": "function"
    },
    {
      "inputs": [
        {
          "internalType": "address payable",
          "name": "wall",
          "type": "address"
        }
      ],
      "name": "updateRewardsWall",
      "outputs": [],
      "stateMutability": "nonpayable",
      "type": "function"
    },
    {
      "inputs": [
        {
          "internalType": "uint256",
          "name": "newVal",
          "type": "uint256"
        }
      ],
      "name": "updateSwapTokensAmount",
      "outputs": [],
      "stateMutability": "nonpayable",
      "type": "function"
    },
    {
      "inputs": [
        {
          "internalType": "address",
          "name": "newAddress",
          "type": "address"
        }
      ],
      "name": "updateUniswapV2Router",
      "outputs": [],
      "stateMutability": "nonpayable",
      "type": "function"
    },
    {
      "stateMutability": "payable",
      "type": "receive"
    }
  ],
  "bytecode": "0x60806040526000601b60006101000a81548160ff0219169083151502179055506001601b60016101000a81548160ff0219169083151502179055506000601d60006101000a81548160ff0219169083151502179055506000601d60016101000a81548160ff0219169083151502179055506000601d60026101000a81548160ff0219169083151502179055506000601d60036101000a81548160ff021916908315150217905550348015620000b357600080fd5b506040516200ab3e3803806200ab3e8339818101604052810190620000d9919062000c59565b8484805182511462000122576040517f08c379a0000000000000000000000000000000000000000000000000000000008152600401620001199062000f1e565b60405180910390fd5b600082511162000169576040517f08c379a0000000000000000000000000000000000000000000000000000000008152600401620001609062000fa6565b60405180910390fd5b60005b825181101562000220576200020a838281518110620001b4577f4e487b7100000000000000000000000000000000000000000000000000000000600052603260045260246000fd5b6020026020010151838381518110620001f6577f4e487b7100000000000000000000000000000000000000000000000000000000600052603260045260246000fd5b6020026020010151620008ad60201b60201c565b80806200021790620011b4565b9150506200016c565b50505033600f60006101000a81548173ffffffffffffffffffffffffffffffffffffffff021916908373ffffffffffffffffffffffffffffffffffffffff16021790555085601060006101000a81548173ffffffffffffffffffffffffffffffffffffffff021916908373ffffffffffffffffffffffffffffffffffffffff16021790555082600081518110620002e0577f4e487b7100000000000000000000000000000000000000000000000000000000600052603260045260246000fd5b6020026020010151601360006101000a81548173ffffffffffffffffffffffffffffffffffffffff021916908373ffffffffffffffffffffffffffffffffffffffff1602179055508260018151811062000363577f4e487b7100000000000000000000000000000000000000000000000000000000600052603260045260246000fd5b6020026020010151601460006101000a81548173ffffffffffffffffffffffffffffffffffffffff021916908373ffffffffffffffffffffffffffffffffffffffff16021790555082600281518110620003e6577f4e487b7100000000000000000000000000000000000000000000000000000000600052603260045260246000fd5b6020026020010151601560006101000a81548173ffffffffffffffffffffffffffffffffffffffff021916908373ffffffffffffffffffffffffffffffffffffffff160217905550600073ffffffffffffffffffffffffffffffffffffffff16601360009054906101000a900473ffffffffffffffffffffffffffffffffffffffff1673ffffffffffffffffffffffffffffffffffffffff1614158015620004dd5750600073ffffffffffffffffffffffffffffffffffffffff16601460009054906101000a900473ffffffffffffffffffffffffffffffffffffffff1673ffffffffffffffffffffffffffffffffffffffff1614155b8015620005395750600073ffffffffffffffffffffffffffffffffffffffff16601560009054906101000a900473ffffffffffffffffffffffffffffffffffffffff1673ffffffffffffffffffffffffffffffffffffffff1614155b6200057b576040517f08c379a0000000000000000000000000000000000000000000000000000000008152600401620005729062000f40565b60405180910390fd5b600082600081518110620005b8577f4e487b7100000000000000000000000000000000000000000000000000000000600052603260045260246000fd5b60200260200101511415801562000612575060008260018151811062000607577f4e487b7100000000000000000000000000000000000000000000000000000000600052603260045260246000fd5b602002602001015114155b801562000662575060008260028151811062000657577f4e487b7100000000000000000000000000000000000000000000000000000000600052603260045260246000fd5b602002602001015114155b8015620006b25750600082600381518110620006a7577f4e487b7100000000000000000000000000000000000000000000000000000000600052603260045260246000fd5b602002602001015114155b620006f4576040517f08c379a0000000000000000000000000000000000000000000000000000000008152600401620006eb9062000eda565b60405180910390fd5b816000815181106200072f577f4e487b7100000000000000000000000000000000000000000000000000000000600052603260045260246000fd5b60200260200101516018819055508160018151811062000778577f4e487b7100000000000000000000000000000000000000000000000000000000600052603260045260246000fd5b602002602001015160168190555081600281518110620007c1577f4e487b7100000000000000000000000000000000000000000000000000000000600052603260045260246000fd5b6020026020010151601781905550816003815181106200080a577f4e487b7100000000000000000000000000000000000000000000000000000000600052603260045260246000fd5b6020026020010151601a819055506018546017546016546200082d919062001082565b62000839919062001082565b6019819055506000811162000885576040517f08c379a00000000000000000000000000000000000000000000000000000000081526004016200087c9062000f62565b60405180910390fd5b670de0b6b3a7640000816200089b9190620010df565b601c8190555050505050505062001485565b600073ffffffffffffffffffffffffffffffffffffffff168273ffffffffffffffffffffffffffffffffffffffff16141562000920576040517f08c379a0000000000000000000000000000000000000000000000000000000008152600401620009179062000efc565b60405180910390fd5b6000811162000966576040517f08c379a00000000000000000000000000000000000000000000000000000000081526004016200095d9062000fc8565b60405180910390fd5b6000600260008473ffffffffffffffffffffffffffffffffffffffff1673ffffffffffffffffffffffffffffffffffffffff1681526020019081526020016000205414620009eb576040517f08c379a0000000000000000000000000000000000000000000000000000000008152600401620009e29062000f84565b60405180910390fd5b6004829080600181540180825580915050600190039060005260206000200160009091909190916101000a81548173ffffffffffffffffffffffffffffffffffffffff021916908373ffffffffffffffffffffffffffffffffffffffff16021790555080600260008473ffffffffffffffffffffffffffffffffffffffff1673ffffffffffffffffffffffffffffffffffffffff168152602001908152602001600020819055508060005462000aa2919062001082565b6000819055507f40c340f65e17194d14ddddb073d3c9f888e3cb52b5aae0c6c7706b4fbc905fac828260405162000adb92919062000ead565b60405180910390a15050565b600062000afe62000af88462001013565b62000fea565b9050808382526020820190508285602086028201111562000b1e57600080fd5b60005b8581101562000b52578162000b37888262000bd1565b84526020840193506020830192505060018101905062000b21565b5050509392505050565b600062000b7362000b6d8462001042565b62000fea565b9050808382526020820190508285602086028201111562000b9357600080fd5b60005b8581101562000bc7578162000bac888262000c42565b84526020840193506020830192505060018101905062000b96565b5050509392505050565b60008151905062000be28162001451565b92915050565b600082601f83011262000bfa57600080fd5b815162000c0c84826020860162000ae7565b91505092915050565b600082601f83011262000c2757600080fd5b815162000c3984826020860162000b5c565b91505092915050565b60008151905062000c53816200146b565b92915050565b60008060008060008060c0878903121562000c7357600080fd5b600062000c8389828a0162000bd1565b965050602087015167ffffffffffffffff81111562000ca157600080fd5b62000caf89828a0162000be8565b955050604087015167ffffffffffffffff81111562000ccd57600080fd5b62000cdb89828a0162000c15565b945050606087015167ffffffffffffffff81111562000cf957600080fd5b62000d0789828a0162000be8565b935050608087015167ffffffffffffffff81111562000d2557600080fd5b62000d3389828a0162000c15565b92505060a062000d4689828a0162000c42565b9150509295509295509295565b62000d5e8162001140565b82525050565b600062000d7360148362001071565b915062000d808262001271565b602082019050919050565b600062000d9a602c8362001071565b915062000da7826200129a565b604082019050919050565b600062000dc160328362001071565b915062000dce82620012e9565b604082019050919050565b600062000de8602b8362001071565b915062000df58262001338565b604082019050919050565b600062000e0f601d8362001071565b915062000e1c8262001387565b602082019050919050565b600062000e36602b8362001071565b915062000e4382620013b0565b604082019050919050565b600062000e5d601a8362001071565b915062000e6a82620013ff565b602082019050919050565b600062000e84601d8362001071565b915062000e918262001428565b602082019050919050565b62000ea78162001174565b82525050565b600060408201905062000ec4600083018562000d53565b62000ed3602083018462000e9c565b9392505050565b6000602082019050818103600083015262000ef58162000d64565b9050919050565b6000602082019050818103600083015262000f178162000d8b565b9050919050565b6000602082019050818103600083015262000f398162000db2565b9050919050565b6000602082019050818103600083015262000f5b8162000dd9565b9050919050565b6000602082019050818103600083015262000f7d8162000e00565b9050919050565b6000602082019050818103600083015262000f9f8162000e27565b9050919050565b6000602082019050818103600083015262000fc18162000e4e565b9050919050565b6000602082019050818103600083015262000fe38162000e75565b9050919050565b600062000ff662001009565b90506200100482826200117e565b919050565b6000604051905090565b600067ffffffffffffffff82111562001031576200103062001231565b5b602082029050602081019050919050565b600067ffffffffffffffff82111562001060576200105f62001231565b5b602082029050602081019050919050565b600082825260208201905092915050565b60006200108f8262001174565b91506200109c8362001174565b9250827fffffffffffffffffffffffffffffffffffffffffffffffffffffffffffffffff03821115620010d457620010d362001202565b5b828201905092915050565b6000620010ec8262001174565b9150620010f98362001174565b9250817fffffffffffffffffffffffffffffffffffffffffffffffffffffffffffffffff048311821515161562001135576200113462001202565b5b828202905092915050565b60006200114d8262001154565b9050919050565b600073ffffffffffffffffffffffffffffffffffffffff82169050919050565b6000819050919050565b620011898262001260565b810181811067ffffffffffffffff82111715620011ab57620011aa62001231565b5b80604052505050565b6000620011c18262001174565b91507fffffffffffffffffffffffffffffffffffffffffffffffffffffffffffffffff821415620011f757620011f662001202565b5b600182019050919050565b7f4e487b7100000000000000000000000000000000000000000000000000000000600052601160045260246000fd5b7f4e487b7100000000000000000000000000000000000000000000000000000000600052604160045260246000fd5b6000601f19601f8301169050919050565b7f434f4e5354523a204665657320657175616c2030000000000000000000000000600082015250565b7f5061796d656e7453706c69747465723a206163636f756e74206973207468652060008201527f7a65726f20616464726573730000000000000000000000000000000000000000602082015250565b7f5061796d656e7453706c69747465723a2070617965657320616e64207368617260008201527f6573206c656e677468206d69736d617463680000000000000000000000000000602082015250565b7f46555455522c20524557415244202620504f4f4c20414444524553532043414e60008201527f4e4f54204245205a45524f000000000000000000000000000000000000000000602082015250565b7f434f4e5354523a205377617020616d6f756e7420696e636f7272656374000000600082015250565b7f5061796d656e7453706c69747465723a206163636f756e7420616c726561647960008201527f2068617320736861726573000000000000000000000000000000000000000000602082015250565b7f5061796d656e7453706c69747465723a206e6f20706179656573000000000000600082015250565b7f5061796d656e7453706c69747465723a20736861726573206172652030000000600082015250565b6200145c8162001140565b81146200146857600080fd5b50565b620014768162001174565b81146200148257600080fd5b50565b6196a980620014956000396000f3fe60806040526004361061039b5760003560e01c806388c41d7c116101dc578063c5ca7d6d11610102578063d79779b2116100a0578063ea84397b1161006f578063ea84397b14610e07578063ef63056314610e32578063f5368c2914610e5d578063f54549bc14610e9a576103e2565b8063d79779b214610d39578063d8a911d914610d76578063e19d3c4814610db3578063e33b7de314610ddc576103e2565b8063ce7c2ac2116100dc578063ce7c2ac214610c69578063d061943914610ca6578063d58b89fd14610ce3578063d6a0d2ee14610d0e576103e2565b8063c5ca7d6d14610bea578063c94bce9714610c15578063ca721f2214610c3e576103e2565b8063a0a8fe651161017a578063b28805f411610149578063b28805f414610b46578063b649224714610b6f578063bbc6799814610b98578063c4c6903814610bc1576103e2565b8063a0a8fe6514610a9c578063a538ddf214610ac7578063ab57476114610af2578063ae8369e814610b1d576103e2565b80639349c47d116101b65780639349c47d146109ce5780639852595c146109f75780639cfccb4614610a345780639f3b0abe14610a5f576103e2565b806388c41d7c1461093f5780638b83209b1461096857806391b9d609146109a5576103e2565b806342bc9fca116102c15780635b0a8a121161025f5780636815a91c1161022e5780636815a91c1461088557806369d0013b146108ae5780636d9ae0be146108d7578063795e011314610902576103e2565b80635b0a8a12146107dd5780635f1c31821461080857806365b8dbc0146108335780636770474b1461085c576103e2565b80634c0768fc1161029b5780634c0768fc146107355780634c7f490e1461075e578063545579731461079b57806354f12f1f146107b2576103e2565b806342bc9fca146106a657806347aab1f8146106cf57806348b750441461070c576103e2565b80631ff9e195116103395780633a98ef39116103085780633a98ef39146105d85780633d80733d146106035780633f8bdd2214610640578063406072a914610669576103e2565b80631ff9e1951461051c578063255d7d55146105595780632a607841146105825780632bb14e1d146105ad576103e2565b80630c08f300116103755780630c08f3001461047657806313114a9d1461049f578063144fa6d7146104ca57806319165587146104f3576103e2565b806301251f2a146103e7578063035f722b14610424578063084a6bff1461044d576103e2565b366103e2577f6ef95f06320e7a25a04a175ca677b7052bdd97131872c2192525a629f51be7706103c9610ec3565b346040516103d89291906182c7565b60405180910390a1005b600080fd5b3480156103f357600080fd5b5061040e600480360381019061040991906173fc565b610ecb565b60405161041b919061888f565b60405180910390f35b34801561043057600080fd5b5061044b6004803603810190610446919061766b565b6111af565b005b34801561045957600080fd5b50610474600480360381019061046f919061789d565b611672565b005b34801561048257600080fd5b5061049d60048036038101906104989190617425565b611787565b005b3480156104ab57600080fd5b506104b46118b3565b6040516104c1919061888f565b60405180910390f35b3480156104d657600080fd5b506104f160048036038101906104ec91906173fc565b6118b9565b005b3480156104ff57600080fd5b5061051a60048036038101906105159190617425565b6119e5565b005b34801561052857600080fd5b50610543600480360381019061053e9190617617565b611b90565b604051610550919061888f565b60405180910390f35b34801561056557600080fd5b50610580600480360381019061057b919061748a565b611c0d565b005b34801561058e57600080fd5b50610597612251565b6040516105a4919061824c565b60405180910390f35b3480156105b957600080fd5b506105c2612277565b6040516105cf919061888f565b60405180910390f35b3480156105e457600080fd5b506105ed61227d565b6040516105fa919061888f565b60405180910390f35b34801561060f57600080fd5b5061062a60048036038101906106259190617617565b612286565b604051610637919061888f565b60405180910390f35b34801561064c57600080fd5b50610667600480360381019061066291906173fc565b612303565b005b34801561067557600080fd5b50610690600480360381019061068b9190617571565b61242f565b60405161069d919061888f565b60405180910390f35b3480156106b257600080fd5b506106cd60048036038101906106c8919061789d565b6124b6565b005b3480156106db57600080fd5b506106f660048036038101906106f191906178ef565b6125cb565b60405161070391906182f0565b60405180910390f35b34801561071857600080fd5b50610733600480360381019061072e9190617571565b612768565b005b34801561074157600080fd5b5061075c600480360381019061075791906174f6565b612a30565b005b34801561076a57600080fd5b50610785600480360381019061078091906173fc565b612b35565b604051610792919061888f565b60405180910390f35b3480156107a757600080fd5b506107b0612c1c565b005b3480156107be57600080fd5b506107c7613114565b6040516107d4919061888f565b60405180910390f35b3480156107e957600080fd5b506107f261311a565b6040516107ff919061888f565b60405180910390f35b34801561081457600080fd5b5061081d613120565b60405161082a919061888f565b60405180910390f35b34801561083f57600080fd5b5061085a600480360381019061085591906173fc565b613126565b005b34801561086857600080fd5b50610883600480360381019061087e919061789d565b613211565b005b34801561089157600080fd5b506108ac60048036038101906108a7919061789d565b613303565b005b3480156108ba57600080fd5b506108d560048036038101906108d091906174f6565b6133f5565b005b3480156108e357600080fd5b506108ec6134fa565b6040516108f9919061888f565b60405180910390f35b34801561090e57600080fd5b50610929600480360381019061092491906176d7565b613500565b604051610936919061888f565b60405180910390f35b34801561094b57600080fd5b506109666004803603810190610961919061789d565b613c03565b005b34801561097457600080fd5b5061098f600480360381019061098a919061789d565b613d18565b60405161099c919061824c565b60405180910390f35b3480156109b157600080fd5b506109cc60048036038101906109c791906174f6565b613d86565b005b3480156109da57600080fd5b506109f560048036038101906109f09190617425565b613e8b565b005b348015610a0357600080fd5b50610a1e6004803603810190610a1991906173fc565b613fb7565b604051610a2b919061888f565b60405180910390f35b348015610a4057600080fd5b50610a49614000565b604051610a56919061824c565b60405180910390f35b348015610a6b57600080fd5b50610a866004803603810190610a81919061789d565b614026565b604051610a939190618334565b60405180910390f35b348015610aa857600080fd5b50610ab16140c4565b604051610abe919061888f565b60405180910390f35b348015610ad357600080fd5b50610adc61421c565b604051610ae9919061824c565b60405180910390f35b348015610afe57600080fd5b50610b07614242565b604051610b14919061888f565b60405180910390f35b348015610b2957600080fd5b50610b446004803603810190610b3f919061744e565b614248565b005b348015610b5257600080fd5b50610b6d6004803603810190610b68919061789d565b6144f3565b005b348015610b7b57600080fd5b50610b966004803603810190610b9191906176d7565b6145b2565b005b348015610ba457600080fd5b50610bbf6004803603810190610bba91906176d7565b614d79565b005b348015610bcd57600080fd5b50610be86004803603810190610be3919061772b565b61548f565b005b348015610bf657600080fd5b50610bff61571b565b604051610c0c919061824c565b60405180910390f35b348015610c2157600080fd5b50610c3c6004803603810190610c3791906176d7565b615741565b005b348015610c4a57600080fd5b50610c536158d8565b604051610c609190618334565b60405180910390f35b348015610c7557600080fd5b50610c906004803603810190610c8b91906173fc565b615966565b604051610c9d919061888f565b60405180910390f35b348015610cb257600080fd5b50610ccd6004803603810190610cc891906175d6565b6159af565b604051610cda9190618312565b60405180910390f35b348015610cef57600080fd5b50610cf8615f56565b604051610d05919061824c565b60405180910390f35b348015610d1a57600080fd5b50610d23615f80565b604051610d30919061888f565b60405180910390f35b348015610d4557600080fd5b50610d606004803603810190610d5b9190617548565b616011565b604051610d6d919061888f565b60405180910390f35b348015610d8257600080fd5b50610d9d6004803603810190610d989190617617565b61605a565b604051610daa919061888f565b60405180910390f35b348015610dbf57600080fd5b50610dda6004803603810190610dd591906174f6565b6160da565b005b348015610de857600080fd5b50610df16161df565b604051610dfe919061888f565b60405180910390f35b348015610e1357600080fd5b50610e1c6161e9565b604051610e29919061824c565b60405180910390f35b348015610e3e57600080fd5b50610e4761620f565b604051610e54919061824c565b60405180910390f35b348015610e6957600080fd5b50610e846004803603810190610e7f91906173fc565b616235565b604051610e91919061888f565b60405180910390f35b348015610ea657600080fd5b50610ec16004803603810190610ebc91906175d6565b61624d565b005b600033905090565b6000610ed5616eaf565b6000805b600773__$f4f4ad711baf0b6680854290afed407660$__637e923cd890916040518263ffffffff1660e01b8152600401610f1391906187d6565b60206040518083038186803b158015610f2b57600080fd5b505af4158015610f3f573d6000803e3d6000fd5b505050506040513d601f19601f82011682018060405250810190610f6391906178c6565b8110156111a457600773__$f4f4ad711baf0b6680854290afed407660$__63384662999091836040518363ffffffff1660e01b8152600401610fa6929190618866565b60006040518083038186803b158015610fbe57600080fd5b505af4158015610fd2573d6000803e3d6000fd5b505050506040513d6000823e3d601f19601f82011682018060405250810190610ffb9190617833565b92506000600b84600001516040516110139190618220565b908152602001604051809103902060008773ffffffffffffffffffffffffffffffffffffffff1673ffffffffffffffffffffffffffffffffffffffff168152602001908152602001600020905060005b818054905081101561118f5761116f8282815481106110ab577f4e487b7100000000000000000000000000000000000000000000000000000000600052603260045260246000fd5b90600052602060002090600302016040518060600160405290816000820180546110d490618c7e565b80601f016020809104026020016040519081016040528092919081815260200182805461110090618c7e565b801561114d5780601f106111225761010080835404028352916020019161114d565b820191906000526020600020905b81548152906001019060200180831161113057829003601f168201915b5050505050815260200160018201548152602001600282015481525050616397565b8461117a9190618a71565b9350808061118790618ce1565b915050611063565b5050808061119c90618ce1565b915050610ed9565b508092505050919050565b601060009054906101000a900473ffffffffffffffffffffffffffffffffffffffff1673ffffffffffffffffffffffffffffffffffffffff163373ffffffffffffffffffffffffffffffffffffffff1614806112585750600f60009054906101000a900473ffffffffffffffffffffffffffffffffffffffff1673ffffffffffffffffffffffffffffffffffffffff163373ffffffffffffffffffffffffffffffffffffffff16145b611297576040517f08c379a000000000000000000000000000000000000000000000000000000000815260040161128e906186f6565b60405180910390fd5b60008251116112db576040517f08c379a00000000000000000000000000000000000000000000000000000000081526004016112d2906185f6565b60405180910390fd5b6112e482616650565b15611324576040517f08c379a000000000000000000000000000000000000000000000000000000000815260040161131b90618616565b60405180910390fd5b600773__$f4f4ad711baf0b6680854290afed407660$__63417400859091846040518061018001604052808781526020018660008151811061138f577f4e487b7100000000000000000000000000000000000000000000000000000000600052603260045260246000fd5b60200260200101518152602001866001815181106113d6577f4e487b7100000000000000000000000000000000000000000000000000000000600052603260045260246000fd5b602002602001015181526020018660028151811061141d577f4e487b7100000000000000000000000000000000000000000000000000000000600052603260045260246000fd5b6020026020010151815260200186600381518110611464577f4e487b7100000000000000000000000000000000000000000000000000000000600052603260045260246000fd5b6020026020010151815260200160008152602001866004815181106114b2577f4e487b7100000000000000000000000000000000000000000000000000000000600052603260045260246000fd5b60200260200101518152602001866005815181106114f9577f4e487b7100000000000000000000000000000000000000000000000000000000600052603260045260246000fd5b6020026020010151815260200186600681518110611540577f4e487b7100000000000000000000000000000000000000000000000000000000600052603260045260246000fd5b6020026020010151815260200186600781518110611587577f4e487b7100000000000000000000000000000000000000000000000000000000600052603260045260246000fd5b60200260200101518152602001866008815181106115ce577f4e487b7100000000000000000000000000000000000000000000000000000000600052603260045260246000fd5b6020026020010151815260200186600981518110611615577f4e487b7100000000000000000000000000000000000000000000000000000000600052603260045260246000fd5b60200260200101518152506040518463ffffffff1660e01b815260040161163e93929190618821565b60006040518083038186803b15801561165657600080fd5b505af415801561166a573d6000803e3d6000fd5b505050505050565b601060009054906101000a900473ffffffffffffffffffffffffffffffffffffffff1673ffffffffffffffffffffffffffffffffffffffff163373ffffffffffffffffffffffffffffffffffffffff16148061171b5750600f60009054906101000a900473ffffffffffffffffffffffffffffffffffffffff1673ffffffffffffffffffffffffffffffffffffffff163373ffffffffffffffffffffffffffffffffffffffff16145b61175a576040517f08c379a0000000000000000000000000000000000000000000000000000000008152600401611751906186f6565b60405180910390fd5b806016819055506018546017546016546117749190618a71565b61177e9190618a71565b60198190555050565b601060009054906101000a900473ffffffffffffffffffffffffffffffffffffffff1673ffffffffffffffffffffffffffffffffffffffff163373ffffffffffffffffffffffffffffffffffffffff1614806118305750600f60009054906101000a900473ffffffffffffffffffffffffffffffffffffffff1673ffffffffffffffffffffffffffffffffffffffff163373ffffffffffffffffffffffffffffffffffffffff16145b61186f576040517f08c379a0000000000000000000000000000000000000000000000000000000008152600401611866906186f6565b60405180910390fd5b80601360006101000a81548173ffffffffffffffffffffffffffffffffffffffff021916908373ffffffffffffffffffffffffffffffffffffffff16021790555050565b60195481565b601060009054906101000a900473ffffffffffffffffffffffffffffffffffffffff1673ffffffffffffffffffffffffffffffffffffffff163373ffffffffffffffffffffffffffffffffffffffff1614806119625750600f60009054906101000a900473ffffffffffffffffffffffffffffffffffffffff1673ffffffffffffffffffffffffffffffffffffffff163373ffffffffffffffffffffffffffffffffffffffff16145b6119a1576040517f08c379a0000000000000000000000000000000000000000000000000000000008152600401611998906186f6565b60405180910390fd5b80601060006101000a81548173ffffffffffffffffffffffffffffffffffffffff021916908373ffffffffffffffffffffffffffffffffffffffff16021790555050565b6000600260008373ffffffffffffffffffffffffffffffffffffffff1673ffffffffffffffffffffffffffffffffffffffff1681526020019081526020016000205411611a67576040517f08c379a0000000000000000000000000000000000000000000000000000000008152600401611a5e906183f6565b60405180910390fd5b6000611a716161df565b47611a7c9190618a71565b90506000611a938383611a8e86613fb7565b6166e8565b90506000811415611ad9576040517f08c379a0000000000000000000000000000000000000000000000000000000008152600401611ad0906184f6565b60405180910390fd5b80600360008573ffffffffffffffffffffffffffffffffffffffff1673ffffffffffffffffffffffffffffffffffffffff1681526020019081526020016000206000828254611b289190618a71565b925050819055508060016000828254611b419190618a71565b92505081905550611b528382616756565b7fdf20fd1e76bc69d672e4814fafb2c449bba3a5369d8359adf9e05e6fde87b0568382604051611b83929190618267565b60405180910390a1505050565b6000611b9b83616650565b611ba85760009050611c07565b600d83604051611bb89190618220565b908152602001604051809103902060008373ffffffffffffffffffffffffffffffffffffffff1673ffffffffffffffffffffffffffffffffffffffff1681526020019081526020016000205490505b92915050565b601d60039054906101000a900460ff16611c5c576040517f08c379a0000000000000000000000000000000000000000000000000000000008152600401611c5390618576565b60405180910390fd5b611c6581616650565b611ca4576040517f08c379a0000000000000000000000000000000000000000000000000000000008152600401611c9b90618596565b60405180910390fd5b6000600773__$f4f4ad711baf0b6680854290afed407660$__635bce6b3b9091846040518363ffffffff1660e01b8152600401611ce29291906187f1565b60206040518083038186803b158015611cfa57600080fd5b505af4158015611d0e573d6000803e3d6000fd5b505050506040513d601f19601f82011682018060405250810190611d329190617874565b9050600181600801541015611d7c576040517f08c379a0000000000000000000000000000000000000000000000000000000008152600401611d7390618436565b60405180910390fd5b6001816008016000828254611d919190618b52565b925050819055506001600c83604051611daa9190618220565b908152602001604051809103902060003373ffffffffffffffffffffffffffffffffffffffff1673ffffffffffffffffffffffffffffffffffffffff1681526020019081526020016000206000828254611e049190618a71565b925050819055508060090154600c83604051611e209190618220565b908152602001604051809103902060003373ffffffffffffffffffffffffffffffffffffffff1673ffffffffffffffffffffffffffffffffffffffff168152602001908152602001600020541115611ead576040517f08c379a0000000000000000000000000000000000000000000000000000000008152600401611ea490618376565b60405180910390fd5b600081600101549050600081905060005b855181108015611ece5750600082115b156121fa576000868281518110611f0e577f4e487b7100000000000000000000000000000000000000000000000000000000600052603260045260246000fd5b60200260200101519050611f2181616650565b611f60576040517f08c379a0000000000000000000000000000000000000000000000000000000008152600401611f5790618716565b60405180910390fd5b6000600b82604051611f729190618220565b908152602001604051809103902060003373ffffffffffffffffffffffffffffffffffffffff1673ffffffffffffffffffffffffffffffffffffffff1681526020019081526020016000208054905011612001576040517f08c379a0000000000000000000000000000000000000000000000000000000008152600401611ff890618476565b60405180910390fd5b6000600773__$f4f4ad711baf0b6680854290afed407660$__635bce6b3b9091846040518363ffffffff1660e01b815260040161203f9291906187f1565b60206040518083038186803b15801561205757600080fd5b505af415801561206b573d6000803e3d6000fd5b505050506040513d601f19601f8201168201806040525081019061208f9190617874565b9050806001015485116120d7576040517f08c379a00000000000000000000000000000000000000000000000000000000081526004016120ce90618676565b60405180910390fd5b600b826040516120e79190618220565b908152602001604051809103902060003373ffffffffffffffffffffffffffffffffffffffff1673ffffffffffffffffffffffffffffffffffffffff168152602001908152602001600020805480612168577f4e487b7100000000000000000000000000000000000000000000000000000000600052603160045260246000fd5b60019003818190600052602060002090600302016000808201600061218d9190616f10565b600182016000905560028201600090555050905560018160050160008282546121b69190618b52565b9250508190555083816001015411156121d257600093506121e5565b8060010154846121e29190618b52565b93505b505080806121f290618ce1565b915050611ebe565b506000811461223e576040517f08c379a0000000000000000000000000000000000000000000000000000000008152600401612235906183d6565b60405180910390fd5b61224a3385600161684a565b5050505050565b601560009054906101000a900473ffffffffffffffffffffffffffffffffffffffff1681565b60165481565b60008054905090565b600061229183616650565b61229e57600090506122fd565b600c836040516122ae9190618220565b908152602001604051809103902060008373ffffffffffffffffffffffffffffffffffffffff1673ffffffffffffffffffffffffffffffffffffffff1681526020019081526020016000205490505b92915050565b601060009054906101000a900473ffffffffffffffffffffffffffffffffffffffff1673ffffffffffffffffffffffffffffffffffffffff163373ffffffffffffffffffffffffffffffffffffffff1614806123ac5750600f60009054906101000a900473ffffffffffffffffffffffffffffffffffffffff1673ffffffffffffffffffffffffffffffffffffffff163373ffffffffffffffffffffffffffffffffffffffff16145b6123eb576040517f08c379a00000000000000000000000000000000000000000000000000000000081526004016123e2906186f6565b60405180910390fd5b80600f60006101000a81548173ffffffffffffffffffffffffffffffffffffffff021916908373ffffffffffffffffffffffffffffffffffffffff16021790555050565b6000600660008473ffffffffffffffffffffffffffffffffffffffff1673ffffffffffffffffffffffffffffffffffffffff16815260200190815260200160002060008373ffffffffffffffffffffffffffffffffffffffff1673ffffffffffffffffffffffffffffffffffffffff16815260200190815260200160002054905092915050565b601060009054906101000a900473ffffffffffffffffffffffffffffffffffffffff1673ffffffffffffffffffffffffffffffffffffffff163373ffffffffffffffffffffffffffffffffffffffff16148061255f5750600f60009054906101000a900473ffffffffffffffffffffffffffffffffffffffff1673ffffffffffffffffffffffffffffffffffffffff163373ffffffffffffffffffffffffffffffffffffffff16145b61259e576040517f08c379a0000000000000000000000000000000000000000000000000000000008152600401612595906186f6565b60405180910390fd5b806017819055506018546017546016546125b89190618a71565b6125c29190618a71565b60198190555050565b6060600083836125db9190618b52565b67ffffffffffffffff81111561261a577f4e487b7100000000000000000000000000000000000000000000000000000000600052604160045260246000fd5b60405190808252806020026020018201604052801561264d57816020015b60608152602001906001900390816126385790505b50905060008490505b8381101561275d576126fb600773__$f4f4ad711baf0b6680854290afed407660$__63384662999091846040518363ffffffff1660e01b815260040161269d929190618866565b60006040518083038186803b1580156126b557600080fd5b505af41580156126c9573d6000803e3d6000fd5b505050506040513d6000823e3d601f19601f820116820180604052508101906126f29190617833565b600001516159af565b8286836127089190618b52565b8151811061273f577f4e487b7100000000000000000000000000000000000000000000000000000000600052603260045260246000fd5b6020026020010181905250808061275590618ce1565b915050612656565b508091505092915050565b6000600260008373ffffffffffffffffffffffffffffffffffffffff1673ffffffffffffffffffffffffffffffffffffffff16815260200190815260200160002054116127ea576040517f08c379a00000000000000000000000000000000000000000000000000000000081526004016127e1906183f6565b60405180910390fd5b60006127f583616011565b8373ffffffffffffffffffffffffffffffffffffffff166370a08231306040518263ffffffff1660e01b815260040161282e919061824c565b60206040518083038186803b15801561284657600080fd5b505afa15801561285a573d6000803e3d6000fd5b505050506040513d601f19601f8201168201806040525081019061287e91906178c6565b6128889190618a71565b905060006128a0838361289b878761242f565b6166e8565b905060008114156128e6576040517f08c379a00000000000000000000000000000000000000000000000000000000081526004016128dd906184f6565b60405180910390fd5b80600660008673ffffffffffffffffffffffffffffffffffffffff1673ffffffffffffffffffffffffffffffffffffffff16815260200190815260200160002060008573ffffffffffffffffffffffffffffffffffffffff1673ffffffffffffffffffffffffffffffffffffffff16815260200190815260200160002060008282546129729190618a71565b9250508190555080600560008673ffffffffffffffffffffffffffffffffffffffff1673ffffffffffffffffffffffffffffffffffffffff16815260200190815260200160002060008282546129c89190618a71565b925050819055506129da848483616ac2565b8373ffffffffffffffffffffffffffffffffffffffff167f3be5b7a71e84ed12875d241991c70855ac5817d847039e17a9d895c1ceb0f18a8483604051612a229291906182c7565b60405180910390a250505050565b601060009054906101000a900473ffffffffffffffffffffffffffffffffffffffff1673ffffffffffffffffffffffffffffffffffffffff163373ffffffffffffffffffffffffffffffffffffffff161480612ad95750600f60009054906101000a900473ffffffffffffffffffffffffffffffffffffffff1673ffffffffffffffffffffffffffffffffffffffff163373ffffffffffffffffffffffffffffffffffffffff16145b612b18576040517f08c379a0000000000000000000000000000000000000000000000000000000008152600401612b0f906186f6565b60405180910390fd5b80601d60016101000a81548160ff02191690831515021790555050565b6000806000905060005b612b47615f80565b811015612c12576000600773__$f4f4ad711baf0b6680854290afed407660$__63384662999091846040518363ffffffff1660e01b8152600401612b8c929190618866565b60006040518083038186803b158015612ba457600080fd5b505af4158015612bb8573d6000803e3d6000fd5b505050506040513d6000823e3d601f19601f82011682018060405250810190612be19190617833565b600001519050612bf1818661605a565b83612bfc9190618a71565b9250508080612c0a90618ce1565b915050612b3f565b5080915050919050565b6000339050612c29616eaf565b6000805b600773__$f4f4ad711baf0b6680854290afed407660$__637e923cd890916040518263ffffffff1660e01b8152600401612c6791906187d6565b60206040518083038186803b158015612c7f57600080fd5b505af4158015612c93573d6000803e3d6000fd5b505050506040513d601f19601f82011682018060405250810190612cb791906178c6565b811015612f4757600773__$f4f4ad711baf0b6680854290afed407660$__63384662999091836040518363ffffffff1660e01b8152600401612cfa929190618866565b60006040518083038186803b158015612d1257600080fd5b505af4158015612d26573d6000803e3d6000fd5b505050506040513d6000823e3d601f19601f82011682018060405250810190612d4f9190617833565b92506000600b8460000151604051612d679190618220565b908152602001604051809103902060008673ffffffffffffffffffffffffffffffffffffffff1673ffffffffffffffffffffffffffffffffffffffff168152602001908152602001600020905060005b8180549050811015612f3257612ec3828281548110612dff577f4e487b7100000000000000000000000000000000000000000000000000000000600052603260045260246000fd5b9060005260206000209060030201604051806060016040529081600082018054612e2890618c7e565b80601f0160208091040260200160405190810160405280929190818152602001828054612e5490618c7e565b8015612ea15780601f10612e7657610100808354040283529160200191612ea1565b820191906000526020600020905b815481529060010190602001808311612e8457829003601f168201915b5050505050815260200160018201548152602001600282015481525050616397565b84612ece9190618a71565b935042828281548110612f0a577f4e487b7100000000000000000000000000000000000000000000000000000000600052603260045260246000fd5b9060005260206000209060030201600201819055508080612f2a90618ce1565b915050612db7565b50508080612f3f90618ce1565b915050612c2d565b5060008111612f8b576040517f08c379a0000000000000000000000000000000000000000000000000000000008152600401612f82906183b6565b60405180910390fd5b601060009054906101000a900473ffffffffffffffffffffffffffffffffffffffff1673ffffffffffffffffffffffffffffffffffffffff166323b872dd601460009054906101000a900473ffffffffffffffffffffffffffffffffffffffff1630846040518463ffffffff1660e01b815260040161300c93929190618290565b602060405180830381600087803b15801561302657600080fd5b505af115801561303a573d6000803e3d6000fd5b505050506040513d601f19601f8201168201806040525081019061305e919061751f565b50601060009054906101000a900473ffffffffffffffffffffffffffffffffffffffff1673ffffffffffffffffffffffffffffffffffffffff1663a9059cbb84836040518363ffffffff1660e01b81526004016130bc9291906182c7565b602060405180830381600087803b1580156130d657600080fd5b505af11580156130ea573d6000803e3d6000fd5b505050506040513d601f19601f8201168201806040525081019061310e919061751f565b50505050565b60175481565b601e5481565b601c5481565b601060009054906101000a900473ffffffffffffffffffffffffffffffffffffffff1673ffffffffffffffffffffffffffffffffffffffff163373ffffffffffffffffffffffffffffffffffffffff1614806131cf5750600f60009054906101000a900473ffffffffffffffffffffffffffffffffffffffff1673ffffffffffffffffffffffffffffffffffffffff163373ffffffffffffffffffffffffffffffffffffffff16145b61320e576040517f08c379a0000000000000000000000000000000000000000000000000000000008152600401613205906186f6565b60405180910390fd5b50565b601060009054906101000a900473ffffffffffffffffffffffffffffffffffffffff1673ffffffffffffffffffffffffffffffffffffffff163373ffffffffffffffffffffffffffffffffffffffff1614806132ba5750600f60009054906101000a900473ffffffffffffffffffffffffffffffffffffffff1673ffffffffffffffffffffffffffffffffffffffff163373ffffffffffffffffffffffffffffffffffffffff16145b6132f9576040517f08c379a00000000000000000000000000000000000000000000000000000000081526004016132f0906186f6565b60405180910390fd5b80601c8190555050565b601060009054906101000a900473ffffffffffffffffffffffffffffffffffffffff1673ffffffffffffffffffffffffffffffffffffffff163373ffffffffffffffffffffffffffffffffffffffff1614806133ac5750600f60009054906101000a900473ffffffffffffffffffffffffffffffffffffffff1673ffffffffffffffffffffffffffffffffffffffff163373ffffffffffffffffffffffffffffffffffffffff16145b6133eb576040517f08c379a00000000000000000000000000000000000000000000000000000000081526004016133e2906186f6565b60405180910390fd5b80601a8190555050565b601060009054906101000a900473ffffffffffffffffffffffffffffffffffffffff1673ffffffffffffffffffffffffffffffffffffffff163373ffffffffffffffffffffffffffffffffffffffff16148061349e5750600f60009054906101000a900473ffffffffffffffffffffffffffffffffffffffff1673ffffffffffffffffffffffffffffffffffffffff163373ffffffffffffffffffffffffffffffffffffffff16145b6134dd576040517f08c379a00000000000000000000000000000000000000000000000000000000081526004016134d4906186f6565b60405180910390fd5b80601d60006101000a81548160ff02191690831515021790555050565b601a5481565b600061350b83616650565b6135185760009050613bfd565b60008214156135b857600773__$f4f4ad711baf0b6680854290afed407660$__635bce6b3b9091856040518363ffffffff1660e01b815260040161355d9291906187f1565b60206040518083038186803b15801561357557600080fd5b505af4158015613589573d6000803e3d6000fd5b505050506040513d601f19601f820116820180604052508101906135ad9190617874565b600101549050613bfd565b600182141561365857600773__$f4f4ad711baf0b6680854290afed407660$__635bce6b3b9091856040518363ffffffff1660e01b81526004016135fd9291906187f1565b60206040518083038186803b15801561361557600080fd5b505af4158015613629573d6000803e3d6000fd5b505050506040513d601f19601f8201168201806040525081019061364d9190617874565b600201549050613bfd565b60028214156136f857600773__$f4f4ad711baf0b6680854290afed407660$__635bce6b3b9091856040518363ffffffff1660e01b815260040161369d9291906187f1565b60206040518083038186803b1580156136b557600080fd5b505af41580156136c9573d6000803e3d6000fd5b505050506040513d601f19601f820116820180604052508101906136ed9190617874565b600301549050613bfd565b600382141561379857600773__$f4f4ad711baf0b6680854290afed407660$__635bce6b3b9091856040518363ffffffff1660e01b815260040161373d9291906187f1565b60206040518083038186803b15801561375557600080fd5b505af4158015613769573d6000803e3d6000fd5b505050506040513d601f19601f8201168201806040525081019061378d9190617874565b600401549050613bfd565b600482141561383857600773__$f4f4ad711baf0b6680854290afed407660$__635bce6b3b9091856040518363ffffffff1660e01b81526004016137dd9291906187f1565b60206040518083038186803b1580156137f557600080fd5b505af4158015613809573d6000803e3d6000fd5b505050506040513d601f19601f8201168201806040525081019061382d9190617874565b600501549050613bfd565b60058214156138d857600773__$f4f4ad711baf0b6680854290afed407660$__635bce6b3b9091856040518363ffffffff1660e01b815260040161387d9291906187f1565b60206040518083038186803b15801561389557600080fd5b505af41580156138a9573d6000803e3d6000fd5b505050506040513d601f19601f820116820180604052508101906138cd9190617874565b600601549050613bfd565b600682141561397857600773__$f4f4ad711baf0b6680854290afed407660$__635bce6b3b9091856040518363ffffffff1660e01b815260040161391d9291906187f1565b60206040518083038186803b15801561393557600080fd5b505af4158015613949573d6000803e3d6000fd5b505050506040513d601f19601f8201168201806040525081019061396d9190617874565b600701549050613bfd565b6007821415613a1857600773__$f4f4ad711baf0b6680854290afed407660$__635bce6b3b9091856040518363ffffffff1660e01b81526004016139bd9291906187f1565b60206040518083038186803b1580156139d557600080fd5b505af41580156139e9573d6000803e3d6000fd5b505050506040513d601f19601f82011682018060405250810190613a0d9190617874565b600801549050613bfd565b6008821415613ab857600773__$f4f4ad711baf0b6680854290afed407660$__635bce6b3b9091856040518363ffffffff1660e01b8152600401613a5d9291906187f1565b60206040518083038186803b158015613a7557600080fd5b505af4158015613a89573d6000803e3d6000fd5b505050506040513d601f19601f82011682018060405250810190613aad9190617874565b600901549050613bfd565b6009821415613b5857600773__$f4f4ad711baf0b6680854290afed407660$__635bce6b3b9091856040518363ffffffff1660e01b8152600401613afd9291906187f1565b60206040518083038186803b158015613b1557600080fd5b505af4158015613b29573d6000803e3d6000fd5b505050506040513d601f19601f82011682018060405250810190613b4d9190617874565b600a01549050613bfd565b600a821415613bf857600773__$f4f4ad711baf0b6680854290afed407660$__635bce6b3b9091856040518363ffffffff1660e01b8152600401613b9d9291906187f1565b60206040518083038186803b158015613bb557600080fd5b505af4158015613bc9573d6000803e3d6000fd5b505050506040513d601f19601f82011682018060405250810190613bed9190617874565b600b01549050613bfd565b600090505b92915050565b601060009054906101000a900473ffffffffffffffffffffffffffffffffffffffff1673ffffffffffffffffffffffffffffffffffffffff163373ffffffffffffffffffffffffffffffffffffffff161480613cac5750600f60009054906101000a900473ffffffffffffffffffffffffffffffffffffffff1673ffffffffffffffffffffffffffffffffffffffff163373ffffffffffffffffffffffffffffffffffffffff16145b613ceb576040517f08c379a0000000000000000000000000000000000000000000000000000000008152600401613ce2906186f6565b60405180910390fd5b80601881905550601854601754601654613d059190618a71565b613d0f9190618a71565b60198190555050565b600060048281548110613d54577f4e487b7100000000000000000000000000000000000000000000000000000000600052603260045260246000fd5b9060005260206000200160009054906101000a900473ffffffffffffffffffffffffffffffffffffffff169050919050565b601060009054906101000a900473ffffffffffffffffffffffffffffffffffffffff1673ffffffffffffffffffffffffffffffffffffffff163373ffffffffffffffffffffffffffffffffffffffff161480613e2f5750600f60009054906101000a900473ffffffffffffffffffffffffffffffffffffffff1673ffffffffffffffffffffffffffffffffffffffff163373ffffffffffffffffffffffffffffffffffffffff16145b613e6e576040517f08c379a0000000000000000000000000000000000000000000000000000000008152600401613e65906186f6565b60405180910390fd5b80601d60026101000a81548160ff02191690831515021790555050565b601060009054906101000a900473ffffffffffffffffffffffffffffffffffffffff1673ffffffffffffffffffffffffffffffffffffffff163373ffffffffffffffffffffffffffffffffffffffff161480613f345750600f60009054906101000a900473ffffffffffffffffffffffffffffffffffffffff1673ffffffffffffffffffffffffffffffffffffffff163373ffffffffffffffffffffffffffffffffffffffff16145b613f73576040517f08c379a0000000000000000000000000000000000000000000000000000000008152600401613f6a906186f6565b60405180910390fd5b80601460006101000a81548173ffffffffffffffffffffffffffffffffffffffff021916908373ffffffffffffffffffffffffffffffffffffffff16021790555050565b6000600360008373ffffffffffffffffffffffffffffffffffffffff1673ffffffffffffffffffffffffffffffffffffffff168152602001908152602001600020549050919050565b601060009054906101000a900473ffffffffffffffffffffffffffffffffffffffff1681565b6060600773__$f4f4ad711baf0b6680854290afed407660$__63384662999091846040518363ffffffff1660e01b8152600401614064929190618866565b60006040518083038186803b15801561407c57600080fd5b505af4158015614090573d6000803e3d6000fd5b505050506040513d6000823e3d601f19601f820116820180604052508101906140b99190617833565b600001519050919050565b6000806000905060005b600773__$f4f4ad711baf0b6680854290afed407660$__637e923cd890916040518263ffffffff1660e01b815260040161410891906187d6565b60206040518083038186803b15801561412057600080fd5b505af4158015614134573d6000803e3d6000fd5b505050506040513d601f19601f8201168201806040525081019061415891906178c6565b81101561421457600773__$f4f4ad711baf0b6680854290afed407660$__63384662999091836040518363ffffffff1660e01b815260040161419b929190618866565b60006040518083038186803b1580156141b357600080fd5b505af41580156141c7573d6000803e3d6000fd5b505050506040513d6000823e3d601f19601f820116820180604052508101906141f09190617833565b60a00151826141ff9190618a71565b9150808061420c90618ce1565b9150506140ce565b508091505090565b601360009054906101000a900473ffffffffffffffffffffffffffffffffffffffff1681565b60185481565b601d60009054906101000a900460ff16806142b05750600f60009054906101000a900473ffffffffffffffffffffffffffffffffffffffff1673ffffffffffffffffffffffffffffffffffffffff163373ffffffffffffffffffffffffffffffffffffffff16145b6142ef576040517f08c379a00000000000000000000000000000000000000000000000000000000081526004016142e690618736565b60405180910390fd5b614382601280546142ff90618c7e565b80601f016020809104026020016040519081016040528092919081815260200182805461432b90618c7e565b80156143785780601f1061434d57610100808354040283529160200191614378565b820191906000526020600020905b81548152906001019060200180831161435b57829003601f168201915b5050505050616650565b6143c1576040517f08c379a00000000000000000000000000000000000000000000000000000000081526004016143b890618556565b60405180910390fd5b60008111614404576040517f08c379a00000000000000000000000000000000000000000000000000000000081526004016143fb90618396565b60405180910390fd5b614499826012805461441590618c7e565b80601f016020809104026020016040519081016040528092919081815260200182805461444190618c7e565b801561448e5780601f106144635761010080835404028352916020019161448e565b820191906000526020600020905b81548152906001019060200180831161447157829003601f168201915b50505050508361684a565b80600e60008473ffffffffffffffffffffffffffffffffffffffff1673ffffffffffffffffffffffffffffffffffffffff16815260200190815260200160002060008282546144e89190618a71565b925050819055505050565b6000600267ffffffffffffffff811115614536577f4e487b7100000000000000000000000000000000000000000000000000000000600052604160045260246000fd5b6040519080825280602002602001820160405280156145645781602001602082028036833780820191505090505b50905081816000815181106145a2577f4e487b7100000000000000000000000000000000000000000000000000000000600052603260045260246000fd5b6020026020010181815250505050565b601d60019054906101000a900460ff16614601576040517f08c379a00000000000000000000000000000000000000000000000000000000081526004016145f8906187b6565b60405180910390fd5b61460a82616650565b614649576040517f08c379a0000000000000000000000000000000000000000000000000000000008152600401614640906185d6565b60405180910390fd5b6000339050601360009054906101000a900473ffffffffffffffffffffffffffffffffffffffff1673ffffffffffffffffffffffffffffffffffffffff168173ffffffffffffffffffffffffffffffffffffffff16141580156146fa5750601460009054906101000a900473ffffffffffffffffffffffffffffffffffffffff1673ffffffffffffffffffffffffffffffffffffffff168173ffffffffffffffffffffffffffffffffffffffff1614155b614739576040517f08c379a000000000000000000000000000000000000000000000000000000000815260040161473090618536565b60405180910390fd5b6000600773__$f4f4ad711baf0b6680854290afed407660$__635bce6b3b9091866040518363ffffffff1660e01b81526004016147779291906187f1565b60206040518083038186803b15801561478f57600080fd5b505af41580156147a3573d6000803e3d6000fd5b505050506040513d601f19601f820116820180604052508101906147c79190617874565b90508281600a01541015614810576040517f08c379a000000000000000000000000000000000000000000000000000000000815260040161480790618756565b60405180910390fd5b8281600a0160008282546148249190618b52565b9250508190555082600d8560405161483c9190618220565b908152602001604051809103902060003373ffffffffffffffffffffffffffffffffffffffff1673ffffffffffffffffffffffffffffffffffffffff16815260200190815260200160002060008282546148969190618a71565b9250508190555080600b0154600d856040516148b29190618220565b908152602001604051809103902060003373ffffffffffffffffffffffffffffffffffffffff1673ffffffffffffffffffffffffffffffffffffffff16815260200190815260200160002054111561493f576040517f08c379a0000000000000000000000000000000000000000000000000000000008152600401614936906185b6565b60405180910390fd5b60008382600101546149519190618af8565b905061495b616eaf565b600080600090505b600773__$f4f4ad711baf0b6680854290afed407660$__637e923cd890916040518263ffffffff1660e01b815260040161499d91906187d6565b60206040518083038186803b1580156149b557600080fd5b505af41580156149c9573d6000803e3d6000fd5b505050506040513d601f19601f820116820180604052508101906149ed91906178c6565b811080156149fb5750600084115b15614d2157600773__$f4f4ad711baf0b6680854290afed407660$__63384662999091836040518363ffffffff1660e01b8152600401614a3c929190618866565b60006040518083038186803b158015614a5457600080fd5b505af4158015614a68573d6000803e3d6000fd5b505050506040513d6000823e3d601f19601f82011682018060405250810190614a919190617833565b92506000600b8460000151604051614aa99190618220565b908152602001604051809103902060008873ffffffffffffffffffffffffffffffffffffffff1673ffffffffffffffffffffffffffffffffffffffff168152602001908152602001600020905060005b818054905081108015614b0c5750600086115b15614d0c57614c11828281548110614b4d577f4e487b7100000000000000000000000000000000000000000000000000000000600052603260045260246000fd5b9060005260206000209060030201604051806060016040529081600082018054614b7690618c7e565b80601f0160208091040260200160405190810160405280929190818152602001828054614ba290618c7e565b8015614bef5780601f10614bc457610100808354040283529160200191614bef565b820191906000526020600020905b815481529060010190602001808311614bd257829003601f168201915b5050505050815260200160018201548152602001600282015481525050616397565b9350838610614c7c5742828281548110614c54577f4e487b7100000000000000000000000000000000000000000000000000000000600052603260045260246000fd5b9060005260206000209060030201600201819055508386614c759190618b52565b9550614cf9565b8460600151856040015185614c919190618af8565b614c9b9190618ac7565b42614ca69190618b52565b828281548110614cdf577f4e487b7100000000000000000000000000000000000000000000000000000000600052603260045260246000fd5b906000526020600020906003020160020181905550600095505b8080614d0490618ce1565b915050614af9565b50508080614d1990618ce1565b915050614963565b5060008314614d65576040517f08c379a0000000000000000000000000000000000000000000000000000000008152600401614d5c90618516565b60405180910390fd5b614d7085888861684a565b50505050505050565b601d60019054906101000a900460ff16614dc8576040517f08c379a0000000000000000000000000000000000000000000000000000000008152600401614dbf906187b6565b60405180910390fd5b614dd182616650565b614e10576040517f08c379a0000000000000000000000000000000000000000000000000000000008152600401614e07906185d6565b60405180910390fd5b6000339050601360009054906101000a900473ffffffffffffffffffffffffffffffffffffffff1673ffffffffffffffffffffffffffffffffffffffff168173ffffffffffffffffffffffffffffffffffffffff1614158015614ec15750601460009054906101000a900473ffffffffffffffffffffffffffffffffffffffff1673ffffffffffffffffffffffffffffffffffffffff168173ffffffffffffffffffffffffffffffffffffffff1614155b614f00576040517f08c379a0000000000000000000000000000000000000000000000000000000008152600401614ef790618536565b60405180910390fd5b600082600773__$f4f4ad711baf0b6680854290afed407660$__635bce6b3b9091876040518363ffffffff1660e01b8152600401614f3f9291906187f1565b60206040518083038186803b158015614f5757600080fd5b505af4158015614f6b573d6000803e3d6000fd5b505050506040513d601f19601f82011682018060405250810190614f8f9190617874565b60010154614f9d9190618af8565b905080601060009054906101000a900473ffffffffffffffffffffffffffffffffffffffff1673ffffffffffffffffffffffffffffffffffffffff166370a08231846040518263ffffffff1660e01b8152600401614ffb919061824c565b60206040518083038186803b15801561501357600080fd5b505afa158015615027573d6000803e3d6000fd5b505050506040513d601f19601f8201168201806040525081019061504b91906178c6565b101561508c576040517f08c379a000000000000000000000000000000000000000000000000000000000815260040161508390618796565b60405180910390fd5b601060009054906101000a900473ffffffffffffffffffffffffffffffffffffffff1673ffffffffffffffffffffffffffffffffffffffff166323b872dd8330846040518463ffffffff1660e01b81526004016150eb93929190618290565b602060405180830381600087803b15801561510557600080fd5b505af1158015615119573d6000803e3d6000fd5b505050506040513d601f19601f8201168201806040525081019061513d919061751f565b506000601060009054906101000a900473ffffffffffffffffffffffffffffffffffffffff1673ffffffffffffffffffffffffffffffffffffffff166370a08231306040518263ffffffff1660e01b815260040161519b919061824c565b60206040518083038186803b1580156151b357600080fd5b505afa1580156151c7573d6000803e3d6000fd5b505050506040513d601f19601f820116820180604052508101906151eb91906178c6565b90506000601c5482101590508080156152105750601b60019054906101000a900460ff165b80156152295750601b60009054906101000a900460ff16155b1561547c576001601b60006101000a81548160ff021916908315150217905550600060646018548461525b9190618af8565b6152659190618ac7565b9050615293601360009054906101000a900473ffffffffffffffffffffffffffffffffffffffff1682616b48565b60006064601654856152a59190618af8565b6152af9190618ac7565b9050601060009054906101000a900473ffffffffffffffffffffffffffffffffffffffff1673ffffffffffffffffffffffffffffffffffffffff1663a9059cbb601460009054906101000a900473ffffffffffffffffffffffffffffffffffffffff16836040518363ffffffff1660e01b81526004016153309291906182c7565b602060405180830381600087803b15801561534a57600080fd5b505af115801561535e573d6000803e3d6000fd5b505050506040513d601f19601f82011682018060405250810190615382919061751f565b5060006064601754866153959190618af8565b61539f9190618ac7565b90506153aa81616bb3565b61545d601060009054906101000a900473ffffffffffffffffffffffffffffffffffffffff1673ffffffffffffffffffffffffffffffffffffffff166370a08231306040518263ffffffff1660e01b8152600401615408919061824c565b60206040518083038186803b15801561542057600080fd5b505afa158015615434573d6000803e3d6000fd5b505050506040513d601f19601f8201168201806040525081019061545891906178c6565b6144f3565b6000601b60006101000a81548160ff0219169083151502179055505050505b61548784878761684a565b505050505050565b601060009054906101000a900473ffffffffffffffffffffffffffffffffffffffff1673ffffffffffffffffffffffffffffffffffffffff163373ffffffffffffffffffffffffffffffffffffffff1614806155385750600f60009054906101000a900473ffffffffffffffffffffffffffffffffffffffff1673ffffffffffffffffffffffffffffffffffffffff163373ffffffffffffffffffffffffffffffffffffffff16145b615577576040517f08c379a000000000000000000000000000000000000000000000000000000000815260040161556e906186f6565b60405180910390fd5b6155808b616650565b6155bf576040517f08c379a00000000000000000000000000000000000000000000000000000000081526004016155b690618456565b60405180910390fd5b6000600773__$f4f4ad711baf0b6680854290afed407660$__635bce6b3b90918e6040518363ffffffff1660e01b81526004016155fd9291906187f1565b60206040518083038186803b15801561561557600080fd5b505af4158015615629573d6000803e3d6000fd5b505050506040513d601f19601f8201168201806040525081019061564d9190617874565b905060008b1115615662578a81600101819055505b60008a1115615675578981600201819055505b6000891115615688578881600301819055505b600088111561569b578781600401819055505b60008711156156ae578681600601819055505b60008611156156c1578581600701819055505b60008511156156d4578481600801819055505b60008411156156e7578381600901819055505b60008311156156fa578281600a01819055505b600082111561570d578181600b01819055505b505050505050505050505050565b601460009054906101000a900473ffffffffffffffffffffffffffffffffffffffff1681565b601d60029054906101000a900460ff16615790576040517f08c379a000000000000000000000000000000000000000000000000000000000815260040161578790618416565b60405180910390fd5b61579982616650565b6157d8576040517f08c379a00000000000000000000000000000000000000000000000000000000081526004016157cf906185d6565b60405180910390fd5b6000339050601360009054906101000a900473ffffffffffffffffffffffffffffffffffffffff1673ffffffffffffffffffffffffffffffffffffffff168173ffffffffffffffffffffffffffffffffffffffff16141580156158895750601460009054906101000a900473ffffffffffffffffffffffffffffffffffffffff1673ffffffffffffffffffffffffffffffffffffffff168173ffffffffffffffffffffffffffffffffffffffff1614155b6158c8576040517f08c379a00000000000000000000000000000000000000000000000000000000081526004016158bf90618536565b60405180910390fd5b6158d381848461684a565b505050565b601280546158e590618c7e565b80601f016020809104026020016040519081016040528092919081815260200182805461591190618c7e565b801561595e5780601f106159335761010080835404028352916020019161595e565b820191906000526020600020905b81548152906001019060200180831161594157829003601f168201915b505050505081565b6000600260008373ffffffffffffffffffffffffffffffffffffffff1673ffffffffffffffffffffffffffffffffffffffff168152602001908152602001600020549050919050565b60606159ba82616650565b6159f9576040517f08c379a00000000000000000000000000000000000000000000000000000000081526004016159f090618656565b60405180910390fd5b6000600b67ffffffffffffffff811115615a3c577f4e487b7100000000000000000000000000000000000000000000000000000000600052604160045260246000fd5b604051908082528060200260200182016040528015615a6a5781602001602082028036833780820191505090505b509050615a75616eaf565b600773__$f4f4ad711baf0b6680854290afed407660$__635bce6b3b9091866040518363ffffffff1660e01b8152600401615ab19291906187f1565b60206040518083038186803b158015615ac957600080fd5b505af4158015615add573d6000803e3d6000fd5b505050506040513d601f19601f82011682018060405250810190615b019190617874565b60405180610180016040529081600082018054615b1d90618c7e565b80601f0160208091040260200160405190810160405280929190818152602001828054615b4990618c7e565b8015615b965780601f10615b6b57610100808354040283529160200191615b96565b820191906000526020600020905b815481529060010190602001808311615b7957829003601f168201915b50505050508152602001600182015481526020016002820154815260200160038201548152602001600482015481526020016005820154815260200160068201548152602001600782015481526020016008820154815260200160098201548152602001600a8201548152602001600b820154815250509050806020015182600081518110615c4e577f4e487b7100000000000000000000000000000000000000000000000000000000600052603260045260246000fd5b602002602001018181525050806040015182600181518110615c99577f4e487b7100000000000000000000000000000000000000000000000000000000600052603260045260246000fd5b602002602001018181525050806060015182600281518110615ce4577f4e487b7100000000000000000000000000000000000000000000000000000000600052603260045260246000fd5b602002602001018181525050806080015182600381518110615d2f577f4e487b7100000000000000000000000000000000000000000000000000000000600052603260045260246000fd5b6020026020010181815250508060a0015182600481518110615d7a577f4e487b7100000000000000000000000000000000000000000000000000000000600052603260045260246000fd5b6020026020010181815250508060c0015182600581518110615dc5577f4e487b7100000000000000000000000000000000000000000000000000000000600052603260045260246000fd5b6020026020010181815250508060e0015182600681518110615e10577f4e487b7100000000000000000000000000000000000000000000000000000000600052603260045260246000fd5b60200260200101818152505080610100015182600781518110615e5c577f4e487b7100000000000000000000000000000000000000000000000000000000600052603260045260246000fd5b60200260200101818152505080610120015182600881518110615ea8577f4e487b7100000000000000000000000000000000000000000000000000000000600052603260045260246000fd5b60200260200101818152505080610140015182600981518110615ef4577f4e487b7100000000000000000000000000000000000000000000000000000000600052603260045260246000fd5b60200260200101818152505080610160015182600a81518110615f40577f4e487b7100000000000000000000000000000000000000000000000000000000600052603260045260246000fd5b6020026020010181815250508192505050919050565b6000601460009054906101000a900473ffffffffffffffffffffffffffffffffffffffff16905090565b6000600773__$f4f4ad711baf0b6680854290afed407660$__637e923cd890916040518263ffffffff1660e01b8152600401615fbc91906187d6565b60206040518083038186803b158015615fd457600080fd5b505af4158015615fe8573d6000803e3d6000fd5b505050506040513d601f19601f8201168201806040525081019061600c91906178c6565b905090565b6000600560008373ffffffffffffffffffffffffffffffffffffffff1673ffffffffffffffffffffffffffffffffffffffff168152602001908152602001600020549050919050565b600061606583616650565b61607257600090506160d4565b600b836040516160829190618220565b908152602001604051809103902060008373ffffffffffffffffffffffffffffffffffffffff1673ffffffffffffffffffffffffffffffffffffffff1681526020019081526020016000208054905090505b92915050565b601060009054906101000a900473ffffffffffffffffffffffffffffffffffffffff1673ffffffffffffffffffffffffffffffffffffffff163373ffffffffffffffffffffffffffffffffffffffff1614806161835750600f60009054906101000a900473ffffffffffffffffffffffffffffffffffffffff1673ffffffffffffffffffffffffffffffffffffffff163373ffffffffffffffffffffffffffffffffffffffff16145b6161c2576040517f08c379a00000000000000000000000000000000000000000000000000000000081526004016161b9906186f6565b60405180910390fd5b80601d60036101000a81548160ff02191690831515021790555050565b6000600154905090565b601160009054906101000a900473ffffffffffffffffffffffffffffffffffffffff1681565b600f60009054906101000a900473ffffffffffffffffffffffffffffffffffffffff1681565b600e6020528060005260406000206000915090505481565b601060009054906101000a900473ffffffffffffffffffffffffffffffffffffffff1673ffffffffffffffffffffffffffffffffffffffff163373ffffffffffffffffffffffffffffffffffffffff1614806162f65750600f60009054906101000a900473ffffffffffffffffffffffffffffffffffffffff1673ffffffffffffffffffffffffffffffffffffffff163373ffffffffffffffffffffffffffffffffffffffff16145b616335576040517f08c379a000000000000000000000000000000000000000000000000000000000815260040161632c906186f6565b60405180910390fd5b61633e81616650565b61637d576040517f08c379a000000000000000000000000000000000000000000000000000000000815260040161637490618636565b60405180910390fd5b8060129080519060200190616393929190616f50565b5050565b600080600773__$f4f4ad711baf0b6680854290afed407660$__635bce6b3b909185600001516040518363ffffffff1660e01b81526004016163da9291906187f1565b60206040518083038186803b1580156163f257600080fd5b505af4158015616406573d6000803e3d6000fd5b505050506040513d601f19601f8201168201806040525081019061642a9190617874565b6040518061018001604052908160008201805461644690618c7e565b80601f016020809104026020016040519081016040528092919081815260200182805461647290618c7e565b80156164bf5780601f10616494576101008083540402835291602001916164bf565b820191906000526020600020905b8154815290600101906020018083116164a257829003601f168201915b50505050508152602001600182015481526020016002820154815260200160038201548152602001600482015481526020016005820154815260200160068201548152602001600782015481526020016008820154815260200160098201548152602001600a8201548152602001600b8201548152505090506000816040015184604001514261654f9190618b52565b10156165b157606482604001516165669190618af8565b826080015160646165779190618b52565b8560400151426165879190618b52565b84606001516165969190618af8565b6165a09190618af8565b6165aa9190618ac7565b90506165e2565b81604001518460400151426165c69190618b52565b83606001516165d59190618af8565b6165df9190618ac7565b90505b816020015182604001518560200151426165fc9190618b52565b846060015161660b9190618af8565b6166159190618ac7565b10156166465760648260e00151606461662e9190618b52565b826166399190618af8565b6166439190618ac7565b90505b8092505050919050565b600080600773__$f4f4ad711baf0b6680854290afed407660$__63df6167209091856040518363ffffffff1660e01b815260040161668f9291906187f1565b60206040518083038186803b1580156166a757600080fd5b505af41580156166bb573d6000803e3d6000fd5b505050506040513d601f19601f820116820180604052508101906166df91906175ad565b12159050919050565b600081600054600260008773ffffffffffffffffffffffffffffffffffffffff1673ffffffffffffffffffffffffffffffffffffffff16815260200190815260200160002054856167399190618af8565b6167439190618ac7565b61674d9190618b52565b90509392505050565b80471015616799576040517f08c379a0000000000000000000000000000000000000000000000000000000008152600401616790906184b6565b60405180910390fd5b60008273ffffffffffffffffffffffffffffffffffffffff16826040516167bf90618237565b60006040518083038185875af1925050503d80600081146167fc576040519150601f19603f3d011682016040523d82523d6000602084013e616801565b606091505b5050905080616845576040517f08c379a000000000000000000000000000000000000000000000000000000000815260040161683c90618496565b60405180910390fd5b505050565b61685382616650565b616892576040517f08c379a000000000000000000000000000000000000000000000000000000000815260040161688990618356565b60405180910390fd5b600081116168d5576040517f08c379a00000000000000000000000000000000000000000000000000000000081526004016168cc906186b6565b60405180910390fd5b6000600773__$f4f4ad711baf0b6680854290afed407660$__635bce6b3b9091856040518363ffffffff1660e01b81526004016169139291906187f1565b60206040518083038186803b15801561692b57600080fd5b505af415801561693f573d6000803e3d6000fd5b505050506040513d601f19601f820116820180604052508101906169639190617874565b9050818160050160008282546169799190618a71565b925050819055508060060154816005015411156169cb576040517f08c379a00000000000000000000000000000000000000000000000000000000081526004016169c290618776565b60405180910390fd5b60005b82811015616abb57600b846040516169e69190618220565b908152602001604051809103902060008673ffffffffffffffffffffffffffffffffffffffff1673ffffffffffffffffffffffffffffffffffffffff16815260200190815260200160002060405180606001604052808681526020014281526020014281525090806001815401808255809150506001900390600052602060002090600302016000909190919091506000820151816000019080519060200190616a91929190616f50565b50602082015181600101556040820151816002015550508080616ab390618ce1565b9150506169ce565b5050505050565b616b438363a9059cbb60e01b8484604051602401616ae19291906182c7565b604051602081830303815290604052907bffffffffffffffffffffffffffffffffffffffffffffffffffffffff19166020820180517bffffffffffffffffffffffffffffffffffffffffffffffffffffffff8381831617835250505050616c3e565b505050565b6000479050616b56826144f3565b60008147616b649190618b52565b90508373ffffffffffffffffffffffffffffffffffffffff166108fc829081150290604051600060405180830381858888f19350505050158015616bac573d6000803e3d6000fd5b5050505050565b6000600282616bc29190618ac7565b905060008183616bd29190618b52565b90506000479050616be2836144f3565b60008147616bf09190618b52565b9050616bfc8382616d05565b7f17bbfb9a6069321b6ded73bd96327c9e6b7212a5cd51ff219cd61370acafb561848285604051616c2f939291906188aa565b60405180910390a15050505050565b6000616ca0826040518060400160405280602081526020017f5361666545524332303a206c6f772d6c6576656c2063616c6c206661696c65648152508573ffffffffffffffffffffffffffffffffffffffff16616d099092919063ffffffff16565b9050600081511115616d005780806020019051810190616cc0919061751f565b616cff576040517f08c379a0000000000000000000000000000000000000000000000000000000008152600401616cf6906186d6565b60405180910390fd5b5b505050565b5050565b6060616d188484600085616d21565b90509392505050565b606082471015616d66576040517f08c379a0000000000000000000000000000000000000000000000000000000008152600401616d5d906184d6565b60405180910390fd5b616d6f85616e35565b616dae576040517f08c379a0000000000000000000000000000000000000000000000000000000008152600401616da590618696565b60405180910390fd5b6000808673ffffffffffffffffffffffffffffffffffffffff168587604051616dd79190618209565b60006040518083038185875af1925050503d8060008114616e14576040519150601f19603f3d011682016040523d82523d6000602084013e616e19565b606091505b5091509150616e29828286616e48565b92505050949350505050565b600080823b905060008111915050919050565b60608315616e5857829050616ea8565b600083511115616e6b5782518084602001fd5b816040517f08c379a0000000000000000000000000000000000000000000000000000000008152600401616e9f9190618334565b60405180910390fd5b9392505050565b6040518061018001604052806060815260200160008152602001600081526020016000815260200160008152602001600081526020016000815260200160008152602001600081526020016000815260200160008152602001600081525090565b508054616f1c90618c7e565b6000825580601f10616f2e5750616f4d565b601f016020900490600052602060002090810190616f4c9190616fd6565b5b50565b828054616f5c90618c7e565b90600052602060002090601f016020900481019282616f7e5760008555616fc5565b82601f10616f9757805160ff1916838001178555616fc5565b82800160010185558215616fc5579182015b82811115616fc4578251825591602001919060010190616fa9565b5b509050616fd29190616fd6565b5090565b5b80821115616fef576000816000905550600101616fd7565b5090565b600061700661700184618906565b6188e1565b9050808382526020820190508285602086028201111561702557600080fd5b60005b8581101561706f57813567ffffffffffffffff81111561704757600080fd5b8086016170548982617233565b85526020850194506020840193505050600181019050617028565b5050509392505050565b600061708c61708784618932565b6188e1565b905080838252602082019050828560208602820111156170ab57600080fd5b60005b858110156170db57816170c188826173d2565b8452602084019350602083019250506001810190506170ae565b5050509392505050565b60006170f86170f38461895e565b6188e1565b90508281526020810184848401111561711057600080fd5b61711b848285618c3c565b509392505050565b60006171366171318461895e565b6188e1565b90508281526020810184848401111561714e57600080fd5b617159848285618c4b565b509392505050565b600081359050617170816195d2565b92915050565b600081359050617185816195e9565b92915050565b600082601f83011261719c57600080fd5b81356171ac848260208601616ff3565b91505092915050565b600082601f8301126171c657600080fd5b81356171d6848260208601617079565b91505092915050565b6000813590506171ee81619600565b92915050565b60008151905061720381619600565b92915050565b60008135905061721881619617565b92915050565b60008151905061722d8161962e565b92915050565b600082601f83011261724457600080fd5b81356172548482602086016170e5565b91505092915050565b600082601f83011261726e57600080fd5b815161727e848260208601617123565b91505092915050565b6000610180828403121561729a57600080fd5b6172a56101806188e1565b9050600082015167ffffffffffffffff8111156172c157600080fd5b6172cd8482850161725d565b60008301525060206172e1848285016173e7565b60208301525060406172f5848285016173e7565b6040830152506060617309848285016173e7565b606083015250608061731d848285016173e7565b60808301525060a0617331848285016173e7565b60a08301525060c0617345848285016173e7565b60c08301525060e0617359848285016173e7565b60e08301525061010061736e848285016173e7565b61010083015250610120617384848285016173e7565b6101208301525061014061739a848285016173e7565b610140830152506101606173b0848285016173e7565b6101608301525092915050565b6000815190506173cc81619645565b92915050565b6000813590506173e18161965c565b92915050565b6000815190506173f68161965c565b92915050565b60006020828403121561740e57600080fd5b600061741c84828501617161565b91505092915050565b60006020828403121561743757600080fd5b600061744584828501617176565b91505092915050565b6000806040838503121561746157600080fd5b600061746f85828601617161565b9250506020617480858286016173d2565b9150509250929050565b6000806040838503121561749d57600080fd5b600083013567ffffffffffffffff8111156174b757600080fd5b6174c38582860161718b565b925050602083013567ffffffffffffffff8111156174e057600080fd5b6174ec85828601617233565b9150509250929050565b60006020828403121561750857600080fd5b6000617516848285016171df565b91505092915050565b60006020828403121561753157600080fd5b600061753f848285016171f4565b91505092915050565b60006020828403121561755a57600080fd5b600061756884828501617209565b91505092915050565b6000806040838503121561758457600080fd5b600061759285828601617209565b92505060206175a385828601617161565b9150509250929050565b6000602082840312156175bf57600080fd5b60006175cd8482850161721e565b91505092915050565b6000602082840312156175e857600080fd5b600082013567ffffffffffffffff81111561760257600080fd5b61760e84828501617233565b91505092915050565b6000806040838503121561762a57600080fd5b600083013567ffffffffffffffff81111561764457600080fd5b61765085828601617233565b925050602061766185828601617161565b9150509250929050565b6000806040838503121561767e57600080fd5b600083013567ffffffffffffffff81111561769857600080fd5b6176a485828601617233565b925050602083013567ffffffffffffffff8111156176c157600080fd5b6176cd858286016171b5565b9150509250929050565b600080604083850312156176ea57600080fd5b600083013567ffffffffffffffff81111561770457600080fd5b61771085828601617233565b9250506020617721858286016173d2565b9150509250929050565b60008060008060008060008060008060006101608c8e03121561774d57600080fd5b60008c013567ffffffffffffffff81111561776757600080fd5b6177738e828f01617233565b9b505060206177848e828f016173d2565b9a505060406177958e828f016173d2565b99505060606177a68e828f016173d2565b98505060806177b78e828f016173d2565b97505060a06177c88e828f016173d2565b96505060c06177d98e828f016173d2565b95505060e06177ea8e828f016173d2565b9450506101006177fc8e828f016173d2565b93505061012061780e8e828f016173d2565b9250506101406178208e828f016173d2565b9150509295989b509295989b9093969950565b60006020828403121561784557600080fd5b600082015167ffffffffffffffff81111561785f57600080fd5b61786b84828501617287565b91505092915050565b60006020828403121561788657600080fd5b6000617894848285016173bd565b91505092915050565b6000602082840312156178af57600080fd5b60006178bd848285016173d2565b91505092915050565b6000602082840312156178d857600080fd5b60006178e6848285016173e7565b91505092915050565b6000806040838503121561790257600080fd5b6000617910858286016173d2565b9250506020617921858286016173d2565b9150509250929050565b600061793783836179ea565b905092915050565b600061794b83836181cd565b60208301905092915050565b61796081618c06565b82525050565b61796f81618b86565b82525050565b6000617980826189af565b61798a81856189f5565b93508360208202850161799c8561898f565b8060005b858110156179d857848403895281516179b9858261792b565b94506179c4836189db565b925060208a019950506001810190506179a0565b50829750879550505050505092915050565b60006179f5826189ba565b6179ff8185618a06565b9350617a0a8361899f565b8060005b83811015617a3b578151617a22888261793f565b9750617a2d836189e8565b925050600181019050617a0e565b5085935050505092915050565b6000617a53826189ba565b617a5d8185618a17565b9350617a688361899f565b8060005b83811015617a99578151617a80888261793f565b9750617a8b836189e8565b925050600181019050617a6c565b5085935050505092915050565b6000617ab1826189c5565b617abb8185618a28565b9350617acb818560208601618c4b565b80840191505092915050565b6000617ae2826189d0565b617aec8185618a33565b9350617afc818560208601618c4b565b617b0581618de6565b840191505092915050565b6000617b1b826189d0565b617b258185618a44565b9350617b35818560208601618c4b565b617b3e81618de6565b840191505092915050565b6000617b54826189d0565b617b5e8185618a55565b9350617b6e818560208601618c4b565b617b7781618de6565b840191505092915050565b6000617b8d826189d0565b617b978185618a66565b9350617ba7818560208601618c4b565b80840191505092915050565b6000617bc0602983618a33565b9150617bcb82618df7565b604082019050919050565b6000617be3601f83618a33565b9150617bee82618e46565b602082019050919050565b6000617c06601983618a33565b9150617c1182618e6f565b602082019050919050565b6000617c29601083618a33565b9150617c3482618e98565b602082019050919050565b6000617c4c600f83618a33565b9150617c5782618ec1565b602082019050919050565b6000617c6f602683618a33565b9150617c7a82618eea565b604082019050919050565b6000617c92602583618a33565b9150617c9d82618f39565b604082019050919050565b6000617cb5602583618a33565b9150617cc082618f88565b604082019050919050565b6000617cd8602b83618a33565b9150617ce382618fd7565b604082019050919050565b6000617cfb600983618a33565b9150617d0682619026565b602082019050919050565b6000617d1e603a83618a33565b9150617d298261904f565b604082019050919050565b6000617d41601d83618a33565b9150617d4c8261909e565b602082019050919050565b6000617d64602683618a33565b9150617d6f826190c7565b604082019050919050565b6000617d87602b83618a33565b9150617d9282619116565b604082019050919050565b6000617daa601483618a33565b9150617db582619165565b602082019050919050565b6000617dcd602883618a33565b9150617dd88261918e565b604082019050919050565b6000617df0603083618a33565b9150617dfb826191dd565b604082019050919050565b6000617e13602083618a33565b9150617e1e8261922c565b602082019050919050565b6000617e36601383618a33565b9150617e4182619255565b602082019050919050565b6000617e59602c83618a33565b9150617e648261927e565b604082019050919050565b6000617e7c601b83618a33565b9150617e87826192cd565b602082019050919050565b6000617e9f601783618a33565b9150617eaa826192f6565b602082019050919050565b6000617ec2602683618a33565b9150617ecd8261931f565b604082019050919050565b6000617ee5601483618a33565b9150617ef08261936e565b602082019050919050565b6000617f08601183618a33565b9150617f1382619397565b602082019050919050565b6000617f2b601183618a33565b9150617f36826193c0565b602082019050919050565b6000617f4e600083618a28565b9150617f59826193e9565b600082019050919050565b6000617f71601d83618a33565b9150617f7c826193ec565b602082019050919050565b6000617f94602a83618a33565b9150617f9f82619415565b604082019050919050565b6000617fb7602a83618a33565b9150617fc282619464565b604082019050919050565b6000617fda600883618a33565b9150617fe5826194b3565b602082019050919050565b6000617ffd601183618a33565b9150618008826194dc565b602082019050919050565b6000618020601c83618a33565b915061802b82619505565b602082019050919050565b6000618043601483618a33565b915061804e8261952e565b602082019050919050565b6000618066601383618a33565b915061807182619557565b602082019050919050565b6000618089601d83618a33565b915061809482619580565b602082019050919050565b60006180ac602083618a33565b91506180b7826195a9565b602082019050919050565b8082525050565b60006101808301600083015184820360008601526180e78282617b49565b91505060208301516180fc60208601826181fa565b50604083015161810f60408601826181fa565b50606083015161812260608601826181fa565b50608083015161813560808601826181fa565b5060a083015161814860a08601826181fa565b5060c083015161815b60c08601826181fa565b5060e083015161816e60e08601826181fa565b506101008301516181836101008601826181fa565b506101208301516181986101208601826181fa565b506101408301516181ad6101408601826181fa565b506101608301516181c26101608601826181fa565b508091505092915050565b6181d681618bfc565b82525050565b6181e581618bfc565b82525050565b6181f481618bfc565b82525050565b61820381618bfc565b82525050565b60006182158284617aa6565b915081905092915050565b600061822c8284617b82565b915081905092915050565b600061824282617f41565b9150819050919050565b60006020820190506182616000830184617966565b92915050565b600060408201905061827c6000830185617957565b61828960208301846181dc565b9392505050565b60006060820190506182a56000830186617966565b6182b26020830185617966565b6182bf60408301846181dc565b949350505050565b60006040820190506182dc6000830185617966565b6182e960208301846181dc565b9392505050565b6000602082019050818103600083015261830a8184617975565b905092915050565b6000602082019050818103600083015261832c8184617a48565b905092915050565b6000602082019050818103600083015261834e8184617ad7565b905092915050565b6000602082019050818103600083015261836f81617bb3565b9050919050565b6000602082019050818103600083015261838f81617bd6565b9050919050565b600060208201905081810360008301526183af81617bf9565b9050919050565b600060208201905081810360008301526183cf81617c1c565b9050919050565b600060208201905081810360008301526183ef81617c3f565b9050919050565b6000602082019050818103600083015261840f81617c62565b9050919050565b6000602082019050818103600083015261842f81617c85565b9050919050565b6000602082019050818103600083015261844f81617ca8565b9050919050565b6000602082019050818103600083015261846f81617ccb565b9050919050565b6000602082019050818103600083015261848f81617cee565b9050919050565b600060208201905081810360008301526184af81617d11565b9050919050565b600060208201905081810360008301526184cf81617d34565b9050919050565b600060208201905081810360008301526184ef81617d57565b9050919050565b6000602082019050818103600083015261850f81617d7a565b9050919050565b6000602082019050818103600083015261852f81617d9d565b9050919050565b6000602082019050818103600083015261854f81617dc0565b9050919050565b6000602082019050818103600083015261856f81617de3565b9050919050565b6000602082019050818103600083015261858f81617e06565b9050919050565b600060208201905081810360008301526185af81617e29565b9050919050565b600060208201905081810360008301526185cf81617e4c565b9050919050565b600060208201905081810360008301526185ef81617e6f565b9050919050565b6000602082019050818103600083015261860f81617e92565b9050919050565b6000602082019050818103600083015261862f81617eb5565b9050919050565b6000602082019050818103600083015261864f81617ed8565b9050919050565b6000602082019050818103600083015261866f81617efb565b9050919050565b6000602082019050818103600083015261868f81617f1e565b9050919050565b600060208201905081810360008301526186af81617f64565b9050919050565b600060208201905081810360008301526186cf81617f87565b9050919050565b600060208201905081810360008301526186ef81617faa565b9050919050565b6000602082019050818103600083015261870f81617fcd565b9050919050565b6000602082019050818103600083015261872f81617ff0565b9050919050565b6000602082019050818103600083015261874f81618013565b9050919050565b6000602082019050818103600083015261876f81618036565b9050919050565b6000602082019050818103600083015261878f81618059565b9050919050565b600060208201905081810360008301526187af8161807c565b9050919050565b600060208201905081810360008301526187cf8161809f565b9050919050565b60006020820190506187eb60008301846180c2565b92915050565b600060408201905061880660008301856180c2565b81810360208301526188188184617b10565b90509392505050565b600060608201905061883660008301866180c2565b81810360208301526188488185617b10565b9050818103604083015261885c81846180c9565b9050949350505050565b600060408201905061887b60008301856180c2565b61888860208301846181eb565b9392505050565b60006020820190506188a460008301846181dc565b92915050565b60006060820190506188bf60008301866181dc565b6188cc60208301856181dc565b6188d960408301846181dc565b949350505050565b60006188eb6188fc565b90506188f78282618cb0565b919050565b6000604051905090565b600067ffffffffffffffff82111561892157618920618db7565b5b602082029050602081019050919050565b600067ffffffffffffffff82111561894d5761894c618db7565b5b602082029050602081019050919050565b600067ffffffffffffffff82111561897957618978618db7565b5b61898282618de6565b9050602081019050919050565b6000819050602082019050919050565b6000819050602082019050919050565b600081519050919050565b600081519050919050565b600081519050919050565b600081519050919050565b6000602082019050919050565b6000602082019050919050565b600082825260208201905092915050565b600082825260208201905092915050565b600082825260208201905092915050565b600081905092915050565b600082825260208201905092915050565b600082825260208201905092915050565b600082825260208201905092915050565b600081905092915050565b6000618a7c82618bfc565b9150618a8783618bfc565b9250827fffffffffffffffffffffffffffffffffffffffffffffffffffffffffffffffff03821115618abc57618abb618d2a565b5b828201905092915050565b6000618ad282618bfc565b9150618add83618bfc565b925082618aed57618aec618d59565b5b828204905092915050565b6000618b0382618bfc565b9150618b0e83618bfc565b9250817fffffffffffffffffffffffffffffffffffffffffffffffffffffffffffffffff0483118215151615618b4757618b46618d2a565b5b828202905092915050565b6000618b5d82618bfc565b9150618b6883618bfc565b925082821015618b7b57618b7a618d2a565b5b828203905092915050565b6000618b9182618bdc565b9050919050565b6000618ba382618bdc565b9050919050565b60008115159050919050565b6000618bc182618b86565b9050919050565b6000819050919050565b6000819050919050565b600073ffffffffffffffffffffffffffffffffffffffff82169050919050565b6000819050919050565b6000618c1182618c18565b9050919050565b6000618c2382618c2a565b9050919050565b6000618c3582618bdc565b9050919050565b82818337600083830152505050565b60005b83811015618c69578082015181840152602081019050618c4e565b83811115618c78576000848401525b50505050565b60006002820490506001821680618c9657607f821691505b60208210811415618caa57618ca9618d88565b5b50919050565b618cb982618de6565b810181811067ffffffffffffffff82111715618cd857618cd7618db7565b5b80604052505050565b6000618cec82618bfc565b91507fffffffffffffffffffffffffffffffffffffffffffffffffffffffffffffffff821415618d1f57618d1e618d2a565b5b600182019050919050565b7f4e487b7100000000000000000000000000000000000000000000000000000000600052601160045260246000fd5b7f4e487b7100000000000000000000000000000000000000000000000000000000600052601260045260246000fd5b7f4e487b7100000000000000000000000000000000000000000000000000000000600052602260045260246000fd5b7f4e487b7100000000000000000000000000000000000000000000000000000000600052604160045260246000fd5b6000601f19601f8301169050919050565b7f5f6372656174654e6f6465733a206e6f6465547970654e616d6520646f65732060008201527f6e6f742065786973740000000000000000000000000000000000000000000000602082015250565b7f4c6576656c207570206c696d6974207265616368656420666f72207573657200600082015250565b7f4e62206d7573742062652067726561746572207468616e203000000000000000600082015250565b7f4e6f7468696e6720746f20636c61696d00000000000000000000000000000000600082015250565b7f4e6f7420656e6f7567682073656e740000000000000000000000000000000000600082015250565b7f5061796d656e7453706c69747465723a206163636f756e7420686173206e6f2060008201527f7368617265730000000000000000000000000000000000000000000000000000602082015250565b7f4e6f6465206372656174696f6e2046726565206e6f7420617574686f72697a6560008201527f6420796574000000000000000000000000000000000000000000000000000000602082015250565b7f4e6f206f6e652063616e206c6576656c20757020746869732074797065206f6660008201527f206e6f6465000000000000000000000000000000000000000000000000000000602082015250565b7f6368616e67654e6f6465547970653a206e6f6465547970654e616d6520646f6560008201527f73206e6f74206578697374000000000000000000000000000000000000000000602082015250565b7f4e6f74206f776e65640000000000000000000000000000000000000000000000600082015250565b7f416464726573733a20756e61626c6520746f2073656e642076616c75652c207260008201527f6563697069656e74206d61792068617665207265766572746564000000000000602082015250565b7f416464726573733a20696e73756666696369656e742062616c616e6365000000600082015250565b7f416464726573733a20696e73756666696369656e742062616c616e636520666f60008201527f722063616c6c0000000000000000000000000000000000000000000000000000602082015250565b7f5061796d656e7453706c69747465723a206163636f756e74206973206e6f742060008201527f647565207061796d656e74000000000000000000000000000000000000000000602082015250565b7f496e73756666696369656e742050656e64696e67000000000000000000000000600082015250565b7f667574757220616e642072657761726473506f6f6c2063616e6e6f742063726560008201527f617465206e6f6465000000000000000000000000000000000000000000000000602082015250565b7f6d6f76654163636f756e743a205f64656661756c746e6f6465547970654e616d60008201527f6520646f6573206e6f7420657869737400000000000000000000000000000000602082015250565b7f4e6f6465206c6576656c207570206e6f7420617574686f72697a656420796574600082015250565b7f74617267657420646f65736e7420657869737400000000000000000000000000600082015250565b7f4372656174696f6e20776974682070656e64696e67206c696d6974207265616360008201527f68656420666f7220757365720000000000000000000000000000000000000000602082015250565b7f6e6f6465547970654e616d6520646f6573206e6f742065786973740000000000600082015250565b7f6164644e6f6465547970653a20456d707479206e616d65000000000000000000600082015250565b7f6164644e6f6465547970653a2073616d65206e6f6465547970654e616d65206560008201527f78697374732e0000000000000000000000000000000000000000000000000000602082015250565b7f4e6f64655479706520646f65736e206578697374000000000000000000000000600082015250565b7f4e616d6520646f65736e74206578697374000000000000000000000000000000600082015250565b7f43616e6e6f74206c6576656c20646f776e000000000000000000000000000000600082015250565b50565b7f416464726573733a2063616c6c20746f206e6f6e2d636f6e7472616374000000600082015250565b7f5f6372656174654e6f6465733a20636f756e742063616e6e6f74206265206c6560008201527f7373207468616e20312e00000000000000000000000000000000000000000000602082015250565b7f5361666545524332303a204552433230206f7065726174696f6e20646964206e60008201527f6f74207375636365656400000000000000000000000000000000000000000000602082015250565b7f4675636b206f6666000000000000000000000000000000000000000000000000600082015250565b7f6e616d6520646f65736e74206578697374000000000000000000000000000000600082015250565b7f4d6967726174696f6e206e6f7420617574686f72697a65642079657400000000600082015250565b7f476c6f62616c206c696d69742072656163686564000000000000000000000000600082015250565b7f4d617820616c7265616479207265616368656400000000000000000000000000600082015250565b7f42616c616e636520746f6f206c6f7720666f72206372656174696f6e2e000000600082015250565b7f4e6f6465206372656174696f6e206e6f7420617574686f72697a656420796574600082015250565b6195db81618b86565b81146195e657600080fd5b50565b6195f281618b98565b81146195fd57600080fd5b50565b61960981618baa565b811461961457600080fd5b50565b61962081618bb6565b811461962b57600080fd5b50565b61963781618bc8565b811461964257600080fd5b50565b61964e81618bd2565b811461965957600080fd5b50565b61966581618bfc565b811461967057600080fd5b5056fea26469706673582212207c6b0b1c1c05e63ef80601014ee45ca9c24431cee3cd7b16a9fbdb4696db22d264736f6c63430008040033",
  "linkReferences": {
    "contracts/IterableNodeTypeMapping.sol": {
      "IterableNodeTypeMapping": [
        {
          "length": 20,
          "start": 9074
        },
        {
          "length": 20,
          "start": 9219
        },
        {
          "length": 20,
          "start": 10173
        },
        {
          "length": 20,
          "start": 12607
        },
        {
          "length": 20,
          "start": 13468
        },
        {
          "length": 20,
          "start": 15098
        },
        {
          "length": 20,
          "start": 16361
        },
        {
          "length": 20,
          "start": 16582
        },
        {
          "length": 20,
          "start": 16727
        },
        {
          "length": 20,
          "start": 18874
        },
        {
          "length": 20,
          "start": 19034
        },
        {
          "length": 20,
          "start": 19194
        },
        {
          "length": 20,
          "start": 19354
        },
        {
          "length": 20,
          "start": 19514
        },
        {
          "length": 20,
          "start": 19674
        },
        {
          "length": 20,
          "start": 19834
        },
        {
          "length": 20,
          "start": 19994
        },
        {
          "length": 20,
          "start": 20154
        },
        {
          "length": 20,
          "start": 20314
        },
        {
          "length": 20,
          "start": 20474
        },
        {
          "length": 20,
          "start": 21697
        },
        {
          "length": 20,
          "start": 21863
        },
        {
          "length": 20,
          "start": 22008
        },
        {
          "length": 20,
          "start": 23508
        },
        {
          "length": 20,
          "start": 24060
        },
        {
          "length": 20,
          "start": 24217
        },
        {
          "length": 20,
          "start": 25500
        },
        {
          "length": 20,
          "start": 27226
        },
        {
          "length": 20,
          "start": 28430
        },
        {
          "length": 20,
          "start": 29723
        },
        {
          "length": 20,
          "start": 30771
        },
        {
          "length": 20,
          "start": 31468
        },
        {
          "length": 20,
          "start": 32112
        }
      ]
    }
  },
  "deployedLinkReferences": {
    "contracts/IterableNodeTypeMapping.sol": {
      "IterableNodeTypeMapping": [
        {
          "length": 20,
          "start": 3805
        },
        {
          "length": 20,
          "start": 3950
        },
        {
          "length": 20,
          "start": 4904
        },
        {
          "length": 20,
          "start": 7338
        },
        {
          "length": 20,
          "start": 8199
        },
        {
          "length": 20,
          "start": 9829
        },
        {
          "length": 20,
          "start": 11092
        },
        {
          "length": 20,
          "start": 11313
        },
        {
          "length": 20,
          "start": 11458
        },
        {
          "length": 20,
          "start": 13605
        },
        {
          "length": 20,
          "start": 13765
        },
        {
          "length": 20,
          "start": 13925
        },
        {
          "length": 20,
          "start": 14085
        },
        {
          "length": 20,
          "start": 14245
        },
        {
          "length": 20,
          "start": 14405
        },
        {
          "length": 20,
          "start": 14565
        },
        {
          "length": 20,
          "start": 14725
        },
        {
          "length": 20,
          "start": 14885
        },
        {
          "length": 20,
          "start": 15045
        },
        {
          "length": 20,
          "start": 15205
        },
        {
          "length": 20,
          "start": 16428
        },
        {
          "length": 20,
          "start": 16594
        },
        {
          "length": 20,
          "start": 16739
        },
        {
          "length": 20,
          "start": 18239
        },
        {
          "length": 20,
          "start": 18791
        },
        {
          "length": 20,
          "start": 18948
        },
        {
          "length": 20,
          "start": 20231
        },
        {
          "length": 20,
          "start": 21957
        },
        {
          "length": 20,
          "start": 23161
        },
        {
          "length": 20,
          "start": 24454
        },
        {
          "length": 20,
          "start": 25502
        },
        {
          "length": 20,
          "start": 26199
        },
        {
          "length": 20,
          "start": 26843
        }
      ]
    }
  }
}